{
  "_format": "hh-sol-artifact-1",
  "contractName": "MusicMarket",
  "sourceName": "contracts/MusicMarket.sol",
  "abi": [
    {
      "inputs": [
        {
          "internalType": "address",
          "name": "_currencyTokenAddress",
          "type": "address"
        },
        {
          "internalType": "address",
          "name": "_itemTokenAddress",
          "type": "address"
        }
      ],
      "stateMutability": "nonpayable",
      "type": "constructor"
    },
    {
      "anonymous": false,
      "inputs": [
        {
          "indexed": false,
          "internalType": "uint256",
          "name": "tradeCounter",
          "type": "uint256"
        },
        {
          "indexed": false,
          "internalType": "bytes32",
          "name": "status",
          "type": "bytes32"
        }
      ],
      "name": "TradeStatusChange",
      "type": "event"
    },
    {
      "inputs": [
        {
          "internalType": "uint256",
          "name": "_tradeCounter",
          "type": "uint256"
        }
      ],
      "name": "cancelTrade",
      "outputs": [],
      "stateMutability": "nonpayable",
      "type": "function"
    },
    {
      "inputs": [
        {
          "internalType": "uint256",
          "name": "_tradeCounter",
          "type": "uint256"
        },
        {
          "internalType": "uint256",
          "name": "_amount",
          "type": "uint256"
        }
      ],
      "name": "executeTrade",
      "outputs": [],
      "stateMutability": "payable",
      "type": "function"
    },
    {
      "inputs": [],
      "name": "marketAddress",
      "outputs": [
        {
          "internalType": "address",
          "name": "",
          "type": "address"
        }
      ],
      "stateMutability": "view",
      "type": "function"
    },
    {
      "inputs": [
        {
          "internalType": "address",
          "name": "operator",
          "type": "address"
        },
        {
          "internalType": "address",
          "name": "from",
          "type": "address"
        },
        {
          "internalType": "uint256[]",
          "name": "ids",
          "type": "uint256[]"
        },
        {
          "internalType": "uint256[]",
          "name": "values",
          "type": "uint256[]"
        },
        {
          "internalType": "bytes",
          "name": "data",
          "type": "bytes"
        }
      ],
      "name": "onERC1155BatchReceived",
      "outputs": [
        {
          "internalType": "bytes4",
          "name": "",
          "type": "bytes4"
        }
      ],
      "stateMutability": "nonpayable",
      "type": "function"
    },
    {
      "inputs": [
        {
          "internalType": "address",
          "name": "operator",
          "type": "address"
        },
        {
          "internalType": "address",
          "name": "from",
          "type": "address"
        },
        {
          "internalType": "uint256",
          "name": "id",
          "type": "uint256"
        },
        {
          "internalType": "uint256",
          "name": "value",
          "type": "uint256"
        },
        {
          "internalType": "bytes",
          "name": "data",
          "type": "bytes"
        }
      ],
      "name": "onERC1155Received",
      "outputs": [
        {
          "internalType": "bytes4",
          "name": "",
          "type": "bytes4"
        }
      ],
      "stateMutability": "nonpayable",
      "type": "function"
    },
    {
      "inputs": [
        {
          "internalType": "address",
          "name": "_creator",
          "type": "address"
        },
        {
          "internalType": "uint256",
          "name": "_item",
          "type": "uint256"
        },
        {
          "internalType": "uint256",
          "name": "_price",
          "type": "uint256"
        },
        {
          "internalType": "uint256",
          "name": "_amount",
          "type": "uint256"
        }
      ],
      "name": "openTrade",
      "outputs": [],
      "stateMutability": "nonpayable",
      "type": "function"
    },
    {
      "inputs": [
        {
          "internalType": "bytes4",
          "name": "interfaceId",
          "type": "bytes4"
        }
      ],
      "name": "supportsInterface",
      "outputs": [
        {
          "internalType": "bool",
          "name": "",
          "type": "bool"
        }
      ],
      "stateMutability": "view",
      "type": "function"
    },
    {
      "inputs": [],
      "name": "tradeCounter",
      "outputs": [
        {
          "internalType": "uint256",
          "name": "",
          "type": "uint256"
        }
      ],
      "stateMutability": "view",
      "type": "function"
    },
    {
      "inputs": [
        {
          "internalType": "uint256",
          "name": "",
          "type": "uint256"
        }
      ],
      "name": "trades",
      "outputs": [
        {
          "internalType": "address",
          "name": "poster",
          "type": "address"
        },
        {
          "internalType": "address",
          "name": "creator",
          "type": "address"
        },
        {
          "internalType": "uint256",
          "name": "item",
          "type": "uint256"
        },
        {
          "internalType": "uint256",
          "name": "amount",
          "type": "uint256"
        },
        {
          "internalType": "uint256",
          "name": "price",
          "type": "uint256"
        },
        {
          "internalType": "bytes32",
          "name": "status",
          "type": "bytes32"
        }
      ],
      "stateMutability": "view",
      "type": "function"
    }
  ],
  "bytecode": "0x60806040523480156200001157600080fd5b5060405162001c9d38038062001c9d833981810160405281019062000037919062000121565b81600160006101000a81548173ffffffffffffffffffffffffffffffffffffffff021916908373ffffffffffffffffffffffffffffffffffffffff16021790555080600260006101000a81548173ffffffffffffffffffffffffffffffffffffffff021916908373ffffffffffffffffffffffffffffffffffffffff160217905550600060038190555033600460006101000a81548173ffffffffffffffffffffffffffffffffffffffff021916908373ffffffffffffffffffffffffffffffffffffffff1602179055505050620001b0565b6000815190506200011b8162000196565b92915050565b600080604083850312156200013557600080fd5b600062000145858286016200010a565b925050602062000158858286016200010a565b9150509250929050565b60006200016f8262000176565b9050919050565b600073ffffffffffffffffffffffffffffffffffffffff82169050919050565b620001a18162000162565b8114620001ad57600080fd5b50565b611add80620001c06000396000f3fe6080604052600436106100865760003560e01c806359b6dd541161005957806359b6dd541461014f578063660d15b51461017857806395623641146101a3578063bc197c81146101ce578063f23a6e611461020b57610086565b806301ffc9a71461008b57806309ec6cc7146100c85780631e6c598e146100f157806326fbd1d614610133575b600080fd5b34801561009757600080fd5b506100b260048036038101906100ad9190611321565b610248565b6040516100bf91906116c9565b60405180910390f35b3480156100d457600080fd5b506100ef60048036038101906100ea919061134a565b6102b2565b005b3480156100fd57600080fd5b506101186004803603810190610113919061134a565b610593565b60405161012a9695949392919061163f565b60405180910390f35b61014d6004803603810190610148919061139c565b61060f565b005b34801561015b57600080fd5b5061017660048036038101906101719190611295565b610c5e565b005b34801561018457600080fd5b5061018d610f88565b60405161019a919061175f565b60405180910390f35b3480156101af57600080fd5b506101b8610f8e565b6040516101c59190611595565b60405180910390f35b3480156101da57600080fd5b506101f560048036038101906101f09190611137565b610fb4565b60405161020291906116e4565b60405180910390f35b34801561021757600080fd5b50610232600480360381019061022d9190611203565b610fcc565b60405161023f91906116e4565b60405180910390f35b60007f01ffc9a7000000000000000000000000000000000000000000000000000000007bffffffffffffffffffffffffffffffffffffffffffffffffffffffff1916827bffffffffffffffffffffffffffffffffffffffffffffffffffffffff1916149050919050565b60008060008381526020019081526020016000206040518060c00160405290816000820160009054906101000a900473ffffffffffffffffffffffffffffffffffffffff1673ffffffffffffffffffffffffffffffffffffffff1673ffffffffffffffffffffffffffffffffffffffff1681526020016001820160009054906101000a900473ffffffffffffffffffffffffffffffffffffffff1673ffffffffffffffffffffffffffffffffffffffff1673ffffffffffffffffffffffffffffffffffffffff1681526020016002820154815260200160038201548152602001600482015481526020016005820154815250509050806000015173ffffffffffffffffffffffffffffffffffffffff163373ffffffffffffffffffffffffffffffffffffffff1614610419576040517f08c379a0000000000000000000000000000000000000000000000000000000008152600401610410906116ff565b60405180910390fd5b7f4f50454e000000000000000000000000000000000000000000000000000000008160a001511461047f576040517f08c379a00000000000000000000000000000000000000000000000000000000081526004016104769061171f565b60405180910390fd5b600260009054906101000a900473ffffffffffffffffffffffffffffffffffffffff1673ffffffffffffffffffffffffffffffffffffffff1663f242432a308360000151846040015185606001516040518563ffffffff1660e01b81526004016104ec94939291906115e7565b600060405180830381600087803b15801561050657600080fd5b505af115801561051a573d6000803e3d6000fd5b505050507f43414e43454c4c45440000000000000000000000000000000000000000000000600080848152602001908152602001600020600501819055507f4d38ed2c5ea671a5ccddc331f0ebebd94a60aaf6e572543497485d4d148f9edf82604051610587919061177a565b60405180910390a15050565b60006020528060005260406000206000915090508060000160009054906101000a900473ffffffffffffffffffffffffffffffffffffffff16908060010160009054906101000a900473ffffffffffffffffffffffffffffffffffffffff16908060020154908060030154908060040154908060050154905086565b60008060008481526020019081526020016000206040518060c00160405290816000820160009054906101000a900473ffffffffffffffffffffffffffffffffffffffff1673ffffffffffffffffffffffffffffffffffffffff1673ffffffffffffffffffffffffffffffffffffffff1681526020016001820160009054906101000a900473ffffffffffffffffffffffffffffffffffffffff1673ffffffffffffffffffffffffffffffffffffffff1673ffffffffffffffffffffffffffffffffffffffff1681526020016002820154815260200160038201548152602001600482015481526020016005820154815250509050818160600151101561074b576040517f08c379a00000000000000000000000000000000000000000000000000000000081526004016107429061173f565b60405180910390fd5b7f4f50454e000000000000000000000000000000000000000000000000000000008160a00151146107b1576040517f08c379a00000000000000000000000000000000000000000000000000000000081526004016107a89061171f565b60405180910390fd5b60006107ca838360800151610fe290919063ffffffff16565b905060006107f66103e86107e8601985610fe290919063ffffffff16565b610ff890919063ffffffff16565b905060006108226103e8610814601986610fe290919063ffffffff16565b610ff890919063ffffffff16565b9050600061084b61083c838561100e90919063ffffffff16565b8561102490919063ffffffff16565b9050600160009054906101000a900473ffffffffffffffffffffffffffffffffffffffff1673ffffffffffffffffffffffffffffffffffffffff166323b872dd338760000151846040518463ffffffff1660e01b81526004016108b0939291906115b0565b602060405180830381600087803b1580156108ca57600080fd5b505af11580156108de573d6000803e3d6000fd5b505050506040513d601f19601f8201168201806040525081019061090291906112f8565b50600160009054906101000a900473ffffffffffffffffffffffffffffffffffffffff1673ffffffffffffffffffffffffffffffffffffffff166323b872dd338760200151866040518463ffffffff1660e01b8152600401610966939291906115b0565b602060405180830381600087803b15801561098057600080fd5b505af1158015610994573d6000803e3d6000fd5b505050506040513d601f19601f820116820180604052508101906109b891906112f8565b50600160009054906101000a900473ffffffffffffffffffffffffffffffffffffffff1673ffffffffffffffffffffffffffffffffffffffff166323b872dd33600460009054906101000a900473ffffffffffffffffffffffffffffffffffffffff16856040518463ffffffff1660e01b8152600401610a3a939291906115b0565b602060405180830381600087803b158015610a5457600080fd5b505af1158015610a68573d6000803e3d6000fd5b505050506040513d601f19601f82011682018060405250810190610a8c91906112f8565b50600260009054906101000a900473ffffffffffffffffffffffffffffffffffffffff1673ffffffffffffffffffffffffffffffffffffffff1663f242432a303388604001518a6040518563ffffffff1660e01b8152600401610af294939291906115e7565b600060405180830381600087803b158015610b0c57600080fd5b505af1158015610b20573d6000803e3d6000fd5b5050505085600080898152602001908152602001600020600301541415610bb7577f4558454355544544000000000000000000000000000000000000000000000000600080898152602001908152602001600020600501819055507f4d38ed2c5ea671a5ccddc331f0ebebd94a60aaf6e572543497485d4d148f9edf87604051610baa91906117a1565b60405180910390a1610c55565b856000808981526020019081526020016000206003016000828254610bdc91906118f2565b925050819055507f4f50454e00000000000000000000000000000000000000000000000000000000600080898152602001908152602001600020600501819055507f4d38ed2c5ea671a5ccddc331f0ebebd94a60aaf6e572543497485d4d148f9edf87604051610c4c91906117c8565b60405180910390a15b50505050505050565b80600260009054906101000a900473ffffffffffffffffffffffffffffffffffffffff1673ffffffffffffffffffffffffffffffffffffffff1662fdd58e33866040518363ffffffff1660e01b8152600401610cbb9291906116a0565b60206040518083038186803b158015610cd357600080fd5b505afa158015610ce7573d6000803e3d6000fd5b505050506040513d601f19601f82011682018060405250810190610d0b9190611373565b1015610d4c576040517f08c379a0000000000000000000000000000000000000000000000000000000008152600401610d439061173f565b60405180910390fd5b600260009054906101000a900473ffffffffffffffffffffffffffffffffffffffff1673ffffffffffffffffffffffffffffffffffffffff1663f242432a333086856040518563ffffffff1660e01b8152600401610dad94939291906115e7565b600060405180830381600087803b158015610dc757600080fd5b505af1158015610ddb573d6000803e3d6000fd5b505050506040518060c001604052803373ffffffffffffffffffffffffffffffffffffffff1681526020018573ffffffffffffffffffffffffffffffffffffffff1681526020018481526020018281526020018381526020017f4f50454e00000000000000000000000000000000000000000000000000000000815250600080600354815260200190815260200160002060008201518160000160006101000a81548173ffffffffffffffffffffffffffffffffffffffff021916908373ffffffffffffffffffffffffffffffffffffffff16021790555060208201518160010160006101000a81548173ffffffffffffffffffffffffffffffffffffffff021916908373ffffffffffffffffffffffffffffffffffffffff16021790555060408201518160020155606082015181600301556080820151816004015560a0820151816005015590505060036000815480929190610f38906119a4565b91905055507f4d38ed2c5ea671a5ccddc331f0ebebd94a60aaf6e572543497485d4d148f9edf6001600354610f6d91906118f2565b604051610f7a91906117c8565b60405180910390a150505050565b60035481565b600460009054906101000a900473ffffffffffffffffffffffffffffffffffffffff1681565b600063bc197c8160e01b905098975050505050505050565b600063f23a6e6160e01b90509695505050505050565b60008183610ff09190611898565b905092915050565b600081836110069190611867565b905092915050565b6000818361101c9190611811565b905092915050565b6000818361103291906118f2565b905092915050565b60008135905061104981611a4b565b92915050565b60008083601f84011261106157600080fd5b8235905067ffffffffffffffff81111561107a57600080fd5b60208301915083602082028301111561109257600080fd5b9250929050565b6000815190506110a881611a62565b92915050565b6000813590506110bd81611a79565b92915050565b60008083601f8401126110d557600080fd5b8235905067ffffffffffffffff8111156110ee57600080fd5b60208301915083600182028301111561110657600080fd5b9250929050565b60008135905061111c81611a90565b92915050565b60008151905061113181611a90565b92915050565b60008060008060008060008060a0898b03121561115357600080fd5b60006111618b828c0161103a565b98505060206111728b828c0161103a565b975050604089013567ffffffffffffffff81111561118f57600080fd5b61119b8b828c0161104f565b9650965050606089013567ffffffffffffffff8111156111ba57600080fd5b6111c68b828c0161104f565b9450945050608089013567ffffffffffffffff8111156111e557600080fd5b6111f18b828c016110c3565b92509250509295985092959890939650565b60008060008060008060a0878903121561121c57600080fd5b600061122a89828a0161103a565b965050602061123b89828a0161103a565b955050604061124c89828a0161110d565b945050606061125d89828a0161110d565b935050608087013567ffffffffffffffff81111561127a57600080fd5b61128689828a016110c3565b92509250509295509295509295565b600080600080608085870312156112ab57600080fd5b60006112b98782880161103a565b94505060206112ca8782880161110d565b93505060406112db8782880161110d565b92505060606112ec8782880161110d565b91505092959194509250565b60006020828403121561130a57600080fd5b600061131884828501611099565b91505092915050565b60006020828403121561133357600080fd5b6000611341848285016110ae565b91505092915050565b60006020828403121561135c57600080fd5b600061136a8482850161110d565b91505092915050565b60006020828403121561138557600080fd5b600061139384828501611122565b91505092915050565b600080604083850312156113af57600080fd5b60006113bd8582860161110d565b92505060206113ce8582860161110d565b9150509250929050565b6113e181611926565b82525050565b6113f081611938565b82525050565b6113ff81611944565b82525050565b61140e8161194e565b82525050565b6000611421602683611800565b91507f54726164652063616e2062652063616e63656c6c6564206f6e6c79206279207060008301527f6f737465722e00000000000000000000000000000000000000000000000000006020830152604082019050919050565b7f43414e43454c4c45440000000000000000000000000000000000000000000000815250565b60006114ad601283611800565b91507f5472616465206973206e6f74206f70656e2e00000000000000000000000000006000830152602082019050919050565b7f4558454355544544000000000000000000000000000000000000000000000000815250565b60006115136000836117ef565b9150600082019050919050565b600061152d601b83611800565b91507f696e73756666696369656e7420616d6f756e74206f66204e46542100000000006000830152602082019050919050565b7f4f50454e00000000000000000000000000000000000000000000000000000000815250565b61158f8161199a565b82525050565b60006020820190506115aa60008301846113d8565b92915050565b60006060820190506115c560008301866113d8565b6115d260208301856113d8565b6115df6040830184611586565b949350505050565b600060a0820190506115fc60008301876113d8565b61160960208301866113d8565b6116166040830185611586565b6116236060830184611586565b818103608083015261163481611506565b905095945050505050565b600060c08201905061165460008301896113d8565b61166160208301886113d8565b61166e6040830187611586565b61167b6060830186611586565b6116886080830185611586565b61169560a08301846113f6565b979650505050505050565b60006040820190506116b560008301856113d8565b6116c26020830184611586565b9392505050565b60006020820190506116de60008301846113e7565b92915050565b60006020820190506116f96000830184611405565b92915050565b6000602082019050818103600083015261171881611414565b9050919050565b60006020820190508181036000830152611738816114a0565b9050919050565b6000602082019050818103600083015261175881611520565b9050919050565b60006020820190506117746000830184611586565b92915050565b600060408201905061178f6000830184611586565b61179b6020830161147a565b92915050565b60006040820190506117b66000830184611586565b6117c2602083016114e0565b92915050565b60006040820190506117dd6000830184611586565b6117e960208301611560565b92915050565b600082825260208201905092915050565b600082825260208201905092915050565b600061181c8261199a565b91506118278361199a565b9250827fffffffffffffffffffffffffffffffffffffffffffffffffffffffffffffffff0382111561185c5761185b6119ed565b5b828201905092915050565b60006118728261199a565b915061187d8361199a565b92508261188d5761188c611a1c565b5b828204905092915050565b60006118a38261199a565b91506118ae8361199a565b9250817fffffffffffffffffffffffffffffffffffffffffffffffffffffffffffffffff04831182151516156118e7576118e66119ed565b5b828202905092915050565b60006118fd8261199a565b91506119088361199a565b92508282101561191b5761191a6119ed565b5b828203905092915050565b60006119318261197a565b9050919050565b60008115159050919050565b6000819050919050565b60007fffffffff0000000000000000000000000000000000000000000000000000000082169050919050565b600073ffffffffffffffffffffffffffffffffffffffff82169050919050565b6000819050919050565b60006119af8261199a565b91507fffffffffffffffffffffffffffffffffffffffffffffffffffffffffffffffff8214156119e2576119e16119ed565b5b600182019050919050565b7f4e487b7100000000000000000000000000000000000000000000000000000000600052601160045260246000fd5b7f4e487b7100000000000000000000000000000000000000000000000000000000600052601260045260246000fd5b611a5481611926565b8114611a5f57600080fd5b50565b611a6b81611938565b8114611a7657600080fd5b50565b611a828161194e565b8114611a8d57600080fd5b50565b611a998161199a565b8114611aa457600080fd5b5056fea264697066735822122073b63eaeb3ba84affcd041dc6bb2c9f094c03ac893ecdd3986570088f65833b164736f6c63430008000033",
  "linkReferences": {},
  "deployedLinkReferences": {}
}