{
  "_format": "hh-sol-artifact-1",
  "contractName": "MusicMarket",
  "sourceName": "contracts/MusicMarket.sol",
  "abi": [
    {
      "inputs": [
        {
          "internalType": "address",
          "name": "_currencyTokenAddress",
          "type": "address"
        },
        {
          "internalType": "address",
          "name": "_itemTokenAddress",
          "type": "address"
        }
      ],
      "stateMutability": "nonpayable",
      "type": "constructor"
    },
    {
      "anonymous": false,
      "inputs": [
        {
          "indexed": false,
          "internalType": "uint256",
          "name": "tradeCounter",
          "type": "uint256"
        },
        {
          "indexed": false,
          "internalType": "bytes32",
          "name": "status",
          "type": "bytes32"
        }
      ],
      "name": "TradeStatusChange",
      "type": "event"
    },
    {
      "inputs": [
        {
          "internalType": "uint256",
          "name": "_tradeCounter",
          "type": "uint256"
        }
      ],
      "name": "cancelTrade",
      "outputs": [],
      "stateMutability": "nonpayable",
      "type": "function"
    },
    {
      "inputs": [
        {
          "internalType": "uint256",
          "name": "_tradeCounter",
          "type": "uint256"
        }
      ],
      "name": "executeTrade",
      "outputs": [],
      "stateMutability": "nonpayable",
      "type": "function"
    },
    {
      "inputs": [
        {
          "internalType": "address",
          "name": "operator",
          "type": "address"
        },
        {
          "internalType": "address",
          "name": "from",
          "type": "address"
        },
        {
          "internalType": "uint256[]",
          "name": "ids",
          "type": "uint256[]"
        },
        {
          "internalType": "uint256[]",
          "name": "values",
          "type": "uint256[]"
        },
        {
          "internalType": "bytes",
          "name": "data",
          "type": "bytes"
        }
      ],
      "name": "onERC1155BatchReceived",
      "outputs": [
        {
          "internalType": "bytes4",
          "name": "",
          "type": "bytes4"
        }
      ],
      "stateMutability": "nonpayable",
      "type": "function"
    },
    {
      "inputs": [
        {
          "internalType": "address",
          "name": "operator",
          "type": "address"
        },
        {
          "internalType": "address",
          "name": "from",
          "type": "address"
        },
        {
          "internalType": "uint256",
          "name": "id",
          "type": "uint256"
        },
        {
          "internalType": "uint256",
          "name": "value",
          "type": "uint256"
        },
        {
          "internalType": "bytes",
          "name": "data",
          "type": "bytes"
        }
      ],
      "name": "onERC1155Received",
      "outputs": [
        {
          "internalType": "bytes4",
          "name": "",
          "type": "bytes4"
        }
      ],
      "stateMutability": "nonpayable",
      "type": "function"
    },
    {
      "inputs": [
        {
          "internalType": "uint256",
          "name": "_item",
          "type": "uint256"
        },
        {
          "internalType": "uint256",
          "name": "_price",
          "type": "uint256"
        },
        {
          "internalType": "uint256",
          "name": "_amount",
          "type": "uint256"
        }
      ],
      "name": "openTrade",
      "outputs": [],
      "stateMutability": "nonpayable",
      "type": "function"
    },
    {
      "inputs": [
        {
          "internalType": "bytes4",
          "name": "interfaceId",
          "type": "bytes4"
        }
      ],
      "name": "supportsInterface",
      "outputs": [
        {
          "internalType": "bool",
          "name": "",
          "type": "bool"
        }
      ],
      "stateMutability": "view",
      "type": "function"
    },
    {
      "inputs": [],
      "name": "tradeCounter",
      "outputs": [
        {
          "internalType": "uint256",
          "name": "",
          "type": "uint256"
        }
      ],
      "stateMutability": "view",
      "type": "function"
    },
    {
      "inputs": [
        {
          "internalType": "uint256",
          "name": "",
          "type": "uint256"
        }
      ],
      "name": "trades",
      "outputs": [
        {
          "internalType": "address",
          "name": "poster",
          "type": "address"
        },
        {
          "internalType": "uint256",
          "name": "item",
          "type": "uint256"
        },
        {
          "internalType": "uint256",
          "name": "amount",
          "type": "uint256"
        },
        {
          "internalType": "uint256",
          "name": "price",
          "type": "uint256"
        },
        {
          "internalType": "bytes32",
          "name": "status",
          "type": "bytes32"
        }
      ],
      "stateMutability": "view",
      "type": "function"
    }
  ],
  "bytecode": "0x60806040523480156200001157600080fd5b506040516200169738038062001697833981810160405281019062000037919062000120565b81600260006101000a81548173ffffffffffffffffffffffffffffffffffffffff021916908373ffffffffffffffffffffffffffffffffffffffff16021790555080600360006101000a81548173ffffffffffffffffffffffffffffffffffffffff021916908373ffffffffffffffffffffffffffffffffffffffff1602179055506000600481905550806000806101000a81548173ffffffffffffffffffffffffffffffffffffffff021916908373ffffffffffffffffffffffffffffffffffffffff1602179055505050620001af565b6000815190506200011a8162000195565b92915050565b600080604083850312156200013457600080fd5b6000620001448582860162000109565b9250506020620001578582860162000109565b9150509250929050565b60006200016e8262000175565b9050919050565b600073ffffffffffffffffffffffffffffffffffffffff82169050919050565b620001a08162000161565b8114620001ac57600080fd5b50565b6114d880620001bf6000396000f3fe608060405234801561001057600080fd5b50600436106100885760003560e01c806333f4ee1f1161005b57806333f4ee1f14610129578063660d15b514610145578063bc197c8114610163578063f23a6e611461019357610088565b806301ffc9a71461008d57806302d2838b146100bd57806309ec6cc7146100d95780631e6c598e146100f5575b600080fd5b6100a760048036038101906100a29190610dfd565b6101c3565b6040516100b4919061118f565b60405180910390f35b6100d760048036038101906100d29190610e26565b61022d565b005b6100f360048036038101906100ee9190610e26565b61059b565b005b61010f600480360381019061010a9190610e26565b610828565b60405161012095949392919061113c565b60405180910390f35b610143600480360381019061013e9190610e78565b61087e565b005b61014d610b45565b60405161015a9190611225565b60405180910390f35b61017d60048036038101906101789190610c76565b610b4b565b60405161018a91906111aa565b60405180910390f35b6101ad60048036038101906101a89190610d42565b610b63565b6040516101ba91906111aa565b60405180910390f35b60007f01ffc9a7000000000000000000000000000000000000000000000000000000007bffffffffffffffffffffffffffffffffffffffffffffffffffffffff1916827bffffffffffffffffffffffffffffffffffffffffffffffffffffffff1916149050919050565b6000600160008381526020019081526020016000206040518060a00160405290816000820160009054906101000a900473ffffffffffffffffffffffffffffffffffffffff1673ffffffffffffffffffffffffffffffffffffffff1673ffffffffffffffffffffffffffffffffffffffff16815260200160018201548152602001600282015481526020016003820154815260200160048201548152505090507f4f50454e00000000000000000000000000000000000000000000000000000000816080015114610333576040517f08c379a000000000000000000000000000000000000000000000000000000000815260040161032a906111e5565b60405180910390fd5b600260009054906101000a900473ffffffffffffffffffffffffffffffffffffffff1673ffffffffffffffffffffffffffffffffffffffff166323b872dd33836000015184606001516040518463ffffffff1660e01b815260040161039a93929190611084565b602060405180830381600087803b1580156103b457600080fd5b505af11580156103c8573d6000803e3d6000fd5b505050506040513d601f19601f820116820180604052508101906103ec9190610dd4565b50600360009054906101000a900473ffffffffffffffffffffffffffffffffffffffff1673ffffffffffffffffffffffffffffffffffffffff1663f242432a3033846020015185604001516040518563ffffffff1660e01b815260040161045694939291906110bb565b600060405180830381600087803b15801561047057600080fd5b505af1158015610484573d6000803e3d6000fd5b505050507f4558454355544544000000000000000000000000000000000000000000000000600160008481526020019081526020016000206004018190555060008054906101000a900473ffffffffffffffffffffffffffffffffffffffff1673ffffffffffffffffffffffffffffffffffffffff166385b842df826020015183604001513385600001516040518563ffffffff1660e01b815260040161052e94939291906112b5565b600060405180830381600087803b15801561054857600080fd5b505af115801561055c573d6000803e3d6000fd5b505050507f4d38ed2c5ea671a5ccddc331f0ebebd94a60aaf6e572543497485d4d148f9edf8260405161058f9190611267565b60405180910390a15050565b6000600160008381526020019081526020016000206040518060a00160405290816000820160009054906101000a900473ffffffffffffffffffffffffffffffffffffffff1673ffffffffffffffffffffffffffffffffffffffff1673ffffffffffffffffffffffffffffffffffffffff1681526020016001820154815260200160028201548152602001600382015481526020016004820154815250509050806000015173ffffffffffffffffffffffffffffffffffffffff163373ffffffffffffffffffffffffffffffffffffffff16146106ad576040517f08c379a00000000000000000000000000000000000000000000000000000000081526004016106a4906111c5565b60405180910390fd5b7f4f50454e00000000000000000000000000000000000000000000000000000000816080015114610713576040517f08c379a000000000000000000000000000000000000000000000000000000000815260040161070a906111e5565b60405180910390fd5b600360009054906101000a900473ffffffffffffffffffffffffffffffffffffffff1673ffffffffffffffffffffffffffffffffffffffff1663f242432a308360000151846020015185604001516040518563ffffffff1660e01b815260040161078094939291906110bb565b600060405180830381600087803b15801561079a57600080fd5b505af11580156107ae573d6000803e3d6000fd5b505050507f43414e43454c4c4544000000000000000000000000000000000000000000000060016000848152602001908152602001600020600401819055507f4d38ed2c5ea671a5ccddc331f0ebebd94a60aaf6e572543497485d4d148f9edf8260405161081c9190611240565b60405180910390a15050565b60016020528060005260406000206000915090508060000160009054906101000a900473ffffffffffffffffffffffffffffffffffffffff16908060010154908060020154908060030154908060040154905085565b80600360009054906101000a900473ffffffffffffffffffffffffffffffffffffffff1673ffffffffffffffffffffffffffffffffffffffff1662fdd58e33866040518363ffffffff1660e01b81526004016108db929190611113565b60206040518083038186803b1580156108f357600080fd5b505afa158015610907573d6000803e3d6000fd5b505050506040513d601f19601f8201168201806040525081019061092b9190610e4f565b101561096c576040517f08c379a000000000000000000000000000000000000000000000000000000000815260040161096390611205565b60405180910390fd5b600360009054906101000a900473ffffffffffffffffffffffffffffffffffffffff1673ffffffffffffffffffffffffffffffffffffffff1663f242432a333086856040518563ffffffff1660e01b81526004016109cd94939291906110bb565b600060405180830381600087803b1580156109e757600080fd5b505af11580156109fb573d6000803e3d6000fd5b505050506040518060a001604052803373ffffffffffffffffffffffffffffffffffffffff1681526020018481526020018281526020018381526020017f4f50454e0000000000000000000000000000000000000000000000000000000081525060016000600454815260200190815260200160002060008201518160000160006101000a81548173ffffffffffffffffffffffffffffffffffffffff021916908373ffffffffffffffffffffffffffffffffffffffff1602179055506020820151816001015560408201518160020155606082015181600301556080820151816004015590505060046000815480929190610af6906113ce565b91905055507f4d38ed2c5ea671a5ccddc331f0ebebd94a60aaf6e572543497485d4d148f9edf6001600454610b2b919061131c565b604051610b38919061128e565b60405180910390a1505050565b60045481565b600063bc197c8160e01b905098975050505050505050565b600063f23a6e6160e01b90509695505050505050565b600081359050610b8881611446565b92915050565b60008083601f840112610ba057600080fd5b8235905067ffffffffffffffff811115610bb957600080fd5b602083019150836020820283011115610bd157600080fd5b9250929050565b600081519050610be78161145d565b92915050565b600081359050610bfc81611474565b92915050565b60008083601f840112610c1457600080fd5b8235905067ffffffffffffffff811115610c2d57600080fd5b602083019150836001820283011115610c4557600080fd5b9250929050565b600081359050610c5b8161148b565b92915050565b600081519050610c708161148b565b92915050565b60008060008060008060008060a0898b031215610c9257600080fd5b6000610ca08b828c01610b79565b9850506020610cb18b828c01610b79565b975050604089013567ffffffffffffffff811115610cce57600080fd5b610cda8b828c01610b8e565b9650965050606089013567ffffffffffffffff811115610cf957600080fd5b610d058b828c01610b8e565b9450945050608089013567ffffffffffffffff811115610d2457600080fd5b610d308b828c01610c02565b92509250509295985092959890939650565b60008060008060008060a08789031215610d5b57600080fd5b6000610d6989828a01610b79565b9650506020610d7a89828a01610b79565b9550506040610d8b89828a01610c4c565b9450506060610d9c89828a01610c4c565b935050608087013567ffffffffffffffff811115610db957600080fd5b610dc589828a01610c02565b92509250509295509295509295565b600060208284031215610de657600080fd5b6000610df484828501610bd8565b91505092915050565b600060208284031215610e0f57600080fd5b6000610e1d84828501610bed565b91505092915050565b600060208284031215610e3857600080fd5b6000610e4684828501610c4c565b91505092915050565b600060208284031215610e6157600080fd5b6000610e6f84828501610c61565b91505092915050565b600080600060608486031215610e8d57600080fd5b6000610e9b86828701610c4c565b9350506020610eac86828701610c4c565b9250506040610ebd86828701610c4c565b9150509250925092565b610ed081611350565b82525050565b610edf81611362565b82525050565b610eee8161136e565b82525050565b610efd81611378565b82525050565b6000610f1060268361130b565b91507f54726164652063616e2062652063616e63656c6c6564206f6e6c79206279207060008301527f6f737465722e00000000000000000000000000000000000000000000000000006020830152604082019050919050565b7f43414e43454c4c45440000000000000000000000000000000000000000000000815250565b6000610f9c60128361130b565b91507f5472616465206973206e6f74206f70656e2e00000000000000000000000000006000830152602082019050919050565b7f4558454355544544000000000000000000000000000000000000000000000000815250565b60006110026000836112fa565b9150600082019050919050565b600061101c601b8361130b565b91507f696e73756666696369656e7420616d6f756e74206f66204e46542100000000006000830152602082019050919050565b7f4f50454e00000000000000000000000000000000000000000000000000000000815250565b61107e816113c4565b82525050565b60006060820190506110996000830186610ec7565b6110a66020830185610ec7565b6110b36040830184611075565b949350505050565b600060a0820190506110d06000830187610ec7565b6110dd6020830186610ec7565b6110ea6040830185611075565b6110f76060830184611075565b818103608083015261110881610ff5565b905095945050505050565b60006040820190506111286000830185610ec7565b6111356020830184611075565b9392505050565b600060a0820190506111516000830188610ec7565b61115e6020830187611075565b61116b6040830186611075565b6111786060830185611075565b6111856080830184610ee5565b9695505050505050565b60006020820190506111a46000830184610ed6565b92915050565b60006020820190506111bf6000830184610ef4565b92915050565b600060208201905081810360008301526111de81610f03565b9050919050565b600060208201905081810360008301526111fe81610f8f565b9050919050565b6000602082019050818103600083015261121e8161100f565b9050919050565b600060208201905061123a6000830184611075565b92915050565b60006040820190506112556000830184611075565b61126160208301610f69565b92915050565b600060408201905061127c6000830184611075565b61128860208301610fcf565b92915050565b60006040820190506112a36000830184611075565b6112af6020830161104f565b92915050565b60006080820190506112ca6000830187611075565b6112d76020830186611075565b6112e46040830185610ec7565b6112f16060830184610ec7565b95945050505050565b600082825260208201905092915050565b600082825260208201905092915050565b6000611327826113c4565b9150611332836113c4565b92508282101561134557611344611417565b5b828203905092915050565b600061135b826113a4565b9050919050565b60008115159050919050565b6000819050919050565b60007fffffffff0000000000000000000000000000000000000000000000000000000082169050919050565b600073ffffffffffffffffffffffffffffffffffffffff82169050919050565b6000819050919050565b60006113d9826113c4565b91507fffffffffffffffffffffffffffffffffffffffffffffffffffffffffffffffff82141561140c5761140b611417565b5b600182019050919050565b7f4e487b7100000000000000000000000000000000000000000000000000000000600052601160045260246000fd5b61144f81611350565b811461145a57600080fd5b50565b61146681611362565b811461147157600080fd5b50565b61147d81611378565b811461148857600080fd5b50565b611494816113c4565b811461149f57600080fd5b5056fea2646970667358221220d216879b6221a58814316aa13381a4984b2cced614e58dc90761b5f8aee703e964736f6c63430008000033",
  "linkReferences": {},
  "deployedLinkReferences": {}
}