{
  "_format": "hh-sol-artifact-1",
  "contractName": "MusicMarket",
  "sourceName": "contracts/MusicMarket.sol",
  "abi": [
    {
      "inputs": [
        {
          "internalType": "address",
          "name": "_currencyTokenAddress",
          "type": "address"
        },
        {
          "internalType": "address",
          "name": "_itemTokenAddress",
          "type": "address"
        }
      ],
      "stateMutability": "nonpayable",
      "type": "constructor"
    },
    {
      "anonymous": false,
      "inputs": [
        {
          "indexed": false,
          "internalType": "uint256",
          "name": "tradeCounter",
          "type": "uint256"
        },
        {
          "indexed": false,
          "internalType": "bytes32",
          "name": "status",
          "type": "bytes32"
        }
      ],
      "name": "TradeStatusChange",
      "type": "event"
    },
    {
      "inputs": [
        {
          "internalType": "uint256",
          "name": "_tradeCounter",
          "type": "uint256"
        }
      ],
      "name": "cancelTrade",
      "outputs": [],
      "stateMutability": "nonpayable",
      "type": "function"
    },
    {
      "inputs": [
        {
          "internalType": "uint256",
          "name": "_tradeCounter",
          "type": "uint256"
        }
      ],
      "name": "executeTrade",
      "outputs": [],
      "stateMutability": "nonpayable",
      "type": "function"
    },
    {
      "inputs": [
        {
          "internalType": "address",
          "name": "operator",
          "type": "address"
        },
        {
          "internalType": "address",
          "name": "from",
          "type": "address"
        },
        {
          "internalType": "uint256[]",
          "name": "ids",
          "type": "uint256[]"
        },
        {
          "internalType": "uint256[]",
          "name": "values",
          "type": "uint256[]"
        },
        {
          "internalType": "bytes",
          "name": "data",
          "type": "bytes"
        }
      ],
      "name": "onERC1155BatchReceived",
      "outputs": [
        {
          "internalType": "bytes4",
          "name": "",
          "type": "bytes4"
        }
      ],
      "stateMutability": "nonpayable",
      "type": "function"
    },
    {
      "inputs": [
        {
          "internalType": "address",
          "name": "operator",
          "type": "address"
        },
        {
          "internalType": "address",
          "name": "from",
          "type": "address"
        },
        {
          "internalType": "uint256",
          "name": "id",
          "type": "uint256"
        },
        {
          "internalType": "uint256",
          "name": "value",
          "type": "uint256"
        },
        {
          "internalType": "bytes",
          "name": "data",
          "type": "bytes"
        }
      ],
      "name": "onERC1155Received",
      "outputs": [
        {
          "internalType": "bytes4",
          "name": "",
          "type": "bytes4"
        }
      ],
      "stateMutability": "nonpayable",
      "type": "function"
    },
    {
      "inputs": [
        {
          "internalType": "uint256",
          "name": "_item",
          "type": "uint256"
        },
        {
          "internalType": "uint256",
          "name": "_price",
          "type": "uint256"
        },
        {
          "internalType": "uint256",
          "name": "_amount",
          "type": "uint256"
        }
      ],
      "name": "openTrade",
      "outputs": [],
      "stateMutability": "nonpayable",
      "type": "function"
    },
    {
      "inputs": [
        {
          "internalType": "bytes4",
          "name": "interfaceId",
          "type": "bytes4"
        }
      ],
      "name": "supportsInterface",
      "outputs": [
        {
          "internalType": "bool",
          "name": "",
          "type": "bool"
        }
      ],
      "stateMutability": "view",
      "type": "function"
    },
    {
      "inputs": [],
      "name": "tradeCounter",
      "outputs": [
        {
          "internalType": "uint256",
          "name": "",
          "type": "uint256"
        }
      ],
      "stateMutability": "view",
      "type": "function"
    },
    {
      "inputs": [
        {
          "internalType": "uint256",
          "name": "",
          "type": "uint256"
        }
      ],
      "name": "trades",
      "outputs": [
        {
          "internalType": "address",
          "name": "poster",
          "type": "address"
        },
        {
          "internalType": "uint256",
          "name": "item",
          "type": "uint256"
        },
        {
          "internalType": "uint256",
          "name": "amount",
          "type": "uint256"
        },
        {
          "internalType": "uint256",
          "name": "price",
          "type": "uint256"
        },
        {
          "internalType": "bytes32",
          "name": "status",
          "type": "bytes32"
        }
      ],
      "stateMutability": "view",
      "type": "function"
    }
  ],
  "bytecode": "0x60806040523480156200001157600080fd5b5060405162001570380380620015708339818101604052810190620000379190620000e0565b81600160006101000a81548173ffffffffffffffffffffffffffffffffffffffff021916908373ffffffffffffffffffffffffffffffffffffffff16021790555080600260006101000a81548173ffffffffffffffffffffffffffffffffffffffff021916908373ffffffffffffffffffffffffffffffffffffffff160217905550600060038190555050506200016f565b600081519050620000da8162000155565b92915050565b60008060408385031215620000f457600080fd5b60006200010485828601620000c9565b92505060206200011785828601620000c9565b9150509250929050565b60006200012e8262000135565b9050919050565b600073ffffffffffffffffffffffffffffffffffffffff82169050919050565b620001608162000121565b81146200016c57600080fd5b50565b6113f1806200017f6000396000f3fe608060405234801561001057600080fd5b50600436106100885760003560e01c806333f4ee1f1161005b57806333f4ee1f14610129578063660d15b514610145578063bc197c8114610163578063f23a6e611461019357610088565b806301ffc9a71461008d57806302d2838b146100bd57806309ec6cc7146100d95780631e6c598e146100f5575b600080fd5b6100a760048036038101906100a29190610d5b565b6101c3565b6040516100b491906110ed565b60405180910390f35b6100d760048036038101906100d29190610d84565b61022d565b005b6100f360048036038101906100ee9190610d84565b6104fc565b005b61010f600480360381019061010a9190610d84565b610787565b60405161012095949392919061109a565b60405180910390f35b610143600480360381019061013e9190610dd6565b6107dd565b005b61014d610aa3565b60405161015a9190611183565b60405180910390f35b61017d60048036038101906101789190610bd4565b610aa9565b60405161018a9190611108565b60405180910390f35b6101ad60048036038101906101a89190610ca0565b610ac1565b6040516101ba9190611108565b60405180910390f35b60007f01ffc9a7000000000000000000000000000000000000000000000000000000007bffffffffffffffffffffffffffffffffffffffffffffffffffffffff1916827bffffffffffffffffffffffffffffffffffffffffffffffffffffffff1916149050919050565b60008060008381526020019081526020016000206040518060a00160405290816000820160009054906101000a900473ffffffffffffffffffffffffffffffffffffffff1673ffffffffffffffffffffffffffffffffffffffff1673ffffffffffffffffffffffffffffffffffffffff16815260200160018201548152602001600282015481526020016003820154815260200160048201548152505090507f4f50454e00000000000000000000000000000000000000000000000000000000816080015114610332576040517f08c379a000000000000000000000000000000000000000000000000000000000815260040161032990611143565b60405180910390fd5b600160009054906101000a900473ffffffffffffffffffffffffffffffffffffffff1673ffffffffffffffffffffffffffffffffffffffff166323b872dd33836000015184606001516040518463ffffffff1660e01b815260040161039993929190610fe2565b602060405180830381600087803b1580156103b357600080fd5b505af11580156103c7573d6000803e3d6000fd5b505050506040513d601f19601f820116820180604052508101906103eb9190610d32565b50600260009054906101000a900473ffffffffffffffffffffffffffffffffffffffff1673ffffffffffffffffffffffffffffffffffffffff1663f242432a3033846020015185604001516040518563ffffffff1660e01b81526004016104559493929190611019565b600060405180830381600087803b15801561046f57600080fd5b505af1158015610483573d6000803e3d6000fd5b505050507f4558454355544544000000000000000000000000000000000000000000000000600080848152602001908152602001600020600401819055507f4d38ed2c5ea671a5ccddc331f0ebebd94a60aaf6e572543497485d4d148f9edf826040516104f091906111c5565b60405180910390a15050565b60008060008381526020019081526020016000206040518060a00160405290816000820160009054906101000a900473ffffffffffffffffffffffffffffffffffffffff1673ffffffffffffffffffffffffffffffffffffffff1673ffffffffffffffffffffffffffffffffffffffff1681526020016001820154815260200160028201548152602001600382015481526020016004820154815250509050806000015173ffffffffffffffffffffffffffffffffffffffff163373ffffffffffffffffffffffffffffffffffffffff161461060d576040517f08c379a000000000000000000000000000000000000000000000000000000000815260040161060490611123565b60405180910390fd5b7f4f50454e00000000000000000000000000000000000000000000000000000000816080015114610673576040517f08c379a000000000000000000000000000000000000000000000000000000000815260040161066a90611143565b60405180910390fd5b600260009054906101000a900473ffffffffffffffffffffffffffffffffffffffff1673ffffffffffffffffffffffffffffffffffffffff1663f242432a308360000151846020015185604001516040518563ffffffff1660e01b81526004016106e09493929190611019565b600060405180830381600087803b1580156106fa57600080fd5b505af115801561070e573d6000803e3d6000fd5b505050507f43414e43454c4c45440000000000000000000000000000000000000000000000600080848152602001908152602001600020600401819055507f4d38ed2c5ea671a5ccddc331f0ebebd94a60aaf6e572543497485d4d148f9edf8260405161077b919061119e565b60405180910390a15050565b60006020528060005260406000206000915090508060000160009054906101000a900473ffffffffffffffffffffffffffffffffffffffff16908060010154908060020154908060030154908060040154905085565b80600260009054906101000a900473ffffffffffffffffffffffffffffffffffffffff1673ffffffffffffffffffffffffffffffffffffffff1662fdd58e33866040518363ffffffff1660e01b815260040161083a929190611071565b60206040518083038186803b15801561085257600080fd5b505afa158015610866573d6000803e3d6000fd5b505050506040513d601f19601f8201168201806040525081019061088a9190610dad565b10156108cb576040517f08c379a00000000000000000000000000000000000000000000000000000000081526004016108c290611163565b60405180910390fd5b600260009054906101000a900473ffffffffffffffffffffffffffffffffffffffff1673ffffffffffffffffffffffffffffffffffffffff1663f242432a333086856040518563ffffffff1660e01b815260040161092c9493929190611019565b600060405180830381600087803b15801561094657600080fd5b505af115801561095a573d6000803e3d6000fd5b505050506040518060a001604052803373ffffffffffffffffffffffffffffffffffffffff1681526020018481526020018281526020018381526020017f4f50454e00000000000000000000000000000000000000000000000000000000815250600080600354815260200190815260200160002060008201518160000160006101000a81548173ffffffffffffffffffffffffffffffffffffffff021916908373ffffffffffffffffffffffffffffffffffffffff1602179055506020820151816001015560408201518160020155606082015181600301556080820151816004015590505060036000815480929190610a54906112e7565b91905055507f4d38ed2c5ea671a5ccddc331f0ebebd94a60aaf6e572543497485d4d148f9edf6001600354610a899190611235565b604051610a9691906111ec565b60405180910390a1505050565b60035481565b600063bc197c8160e01b905098975050505050505050565b600063f23a6e6160e01b90509695505050505050565b600081359050610ae68161135f565b92915050565b60008083601f840112610afe57600080fd5b8235905067ffffffffffffffff811115610b1757600080fd5b602083019150836020820283011115610b2f57600080fd5b9250929050565b600081519050610b4581611376565b92915050565b600081359050610b5a8161138d565b92915050565b60008083601f840112610b7257600080fd5b8235905067ffffffffffffffff811115610b8b57600080fd5b602083019150836001820283011115610ba357600080fd5b9250929050565b600081359050610bb9816113a4565b92915050565b600081519050610bce816113a4565b92915050565b60008060008060008060008060a0898b031215610bf057600080fd5b6000610bfe8b828c01610ad7565b9850506020610c0f8b828c01610ad7565b975050604089013567ffffffffffffffff811115610c2c57600080fd5b610c388b828c01610aec565b9650965050606089013567ffffffffffffffff811115610c5757600080fd5b610c638b828c01610aec565b9450945050608089013567ffffffffffffffff811115610c8257600080fd5b610c8e8b828c01610b60565b92509250509295985092959890939650565b60008060008060008060a08789031215610cb957600080fd5b6000610cc789828a01610ad7565b9650506020610cd889828a01610ad7565b9550506040610ce989828a01610baa565b9450506060610cfa89828a01610baa565b935050608087013567ffffffffffffffff811115610d1757600080fd5b610d2389828a01610b60565b92509250509295509295509295565b600060208284031215610d4457600080fd5b6000610d5284828501610b36565b91505092915050565b600060208284031215610d6d57600080fd5b6000610d7b84828501610b4b565b91505092915050565b600060208284031215610d9657600080fd5b6000610da484828501610baa565b91505092915050565b600060208284031215610dbf57600080fd5b6000610dcd84828501610bbf565b91505092915050565b600080600060608486031215610deb57600080fd5b6000610df986828701610baa565b9350506020610e0a86828701610baa565b9250506040610e1b86828701610baa565b9150509250925092565b610e2e81611269565b82525050565b610e3d8161127b565b82525050565b610e4c81611287565b82525050565b610e5b81611291565b82525050565b6000610e6e602683611224565b91507f54726164652063616e2062652063616e63656c6c6564206f6e6c79206279207060008301527f6f737465722e00000000000000000000000000000000000000000000000000006020830152604082019050919050565b7f43414e43454c4c45440000000000000000000000000000000000000000000000815250565b6000610efa601283611224565b91507f5472616465206973206e6f74206f70656e2e00000000000000000000000000006000830152602082019050919050565b7f4558454355544544000000000000000000000000000000000000000000000000815250565b6000610f60600083611213565b9150600082019050919050565b6000610f7a601b83611224565b91507f696e73756666696369656e7420616d6f756e74206f66204e46542100000000006000830152602082019050919050565b7f4f50454e00000000000000000000000000000000000000000000000000000000815250565b610fdc816112dd565b82525050565b6000606082019050610ff76000830186610e25565b6110046020830185610e25565b6110116040830184610fd3565b949350505050565b600060a08201905061102e6000830187610e25565b61103b6020830186610e25565b6110486040830185610fd3565b6110556060830184610fd3565b818103608083015261106681610f53565b905095945050505050565b60006040820190506110866000830185610e25565b6110936020830184610fd3565b9392505050565b600060a0820190506110af6000830188610e25565b6110bc6020830187610fd3565b6110c96040830186610fd3565b6110d66060830185610fd3565b6110e36080830184610e43565b9695505050505050565b60006020820190506111026000830184610e34565b92915050565b600060208201905061111d6000830184610e52565b92915050565b6000602082019050818103600083015261113c81610e61565b9050919050565b6000602082019050818103600083015261115c81610eed565b9050919050565b6000602082019050818103600083015261117c81610f6d565b9050919050565b60006020820190506111986000830184610fd3565b92915050565b60006040820190506111b36000830184610fd3565b6111bf60208301610ec7565b92915050565b60006040820190506111da6000830184610fd3565b6111e660208301610f2d565b92915050565b60006040820190506112016000830184610fd3565b61120d60208301610fad565b92915050565b600082825260208201905092915050565b600082825260208201905092915050565b6000611240826112dd565b915061124b836112dd565b92508282101561125e5761125d611330565b5b828203905092915050565b6000611274826112bd565b9050919050565b60008115159050919050565b6000819050919050565b60007fffffffff0000000000000000000000000000000000000000000000000000000082169050919050565b600073ffffffffffffffffffffffffffffffffffffffff82169050919050565b6000819050919050565b60006112f2826112dd565b91507fffffffffffffffffffffffffffffffffffffffffffffffffffffffffffffffff82141561132557611324611330565b5b600182019050919050565b7f4e487b7100000000000000000000000000000000000000000000000000000000600052601160045260246000fd5b61136881611269565b811461137357600080fd5b50565b61137f8161127b565b811461138a57600080fd5b50565b61139681611291565b81146113a157600080fd5b50565b6113ad816112dd565b81146113b857600080fd5b5056fea2646970667358221220e555c290721744ae15ea38c3e1fef028d1bca36c9066d52cd5dc030ce3ab3cf864736f6c63430008000033",
  "linkReferences": {},
  "deployedLinkReferences": {}
}