{
  "_format": "hh-sol-artifact-1",
  "contractName": "MusicFactory",
  "sourceName": "contracts/MusicFactory.sol",
  "abi": [
    {
      "inputs": [],
      "stateMutability": "nonpayable",
      "type": "constructor"
    },
    {
      "anonymous": false,
      "inputs": [
        {
          "indexed": true,
          "internalType": "address",
          "name": "account",
          "type": "address"
        },
        {
          "indexed": true,
          "internalType": "address",
          "name": "operator",
          "type": "address"
        },
        {
          "indexed": false,
          "internalType": "bool",
          "name": "approved",
          "type": "bool"
        }
      ],
      "name": "ApprovalForAll",
      "type": "event"
    },
    {
      "anonymous": false,
      "inputs": [
        {
          "indexed": true,
          "internalType": "address",
          "name": "operator",
          "type": "address"
        },
        {
          "indexed": true,
          "internalType": "address",
          "name": "from",
          "type": "address"
        },
        {
          "indexed": true,
          "internalType": "address",
          "name": "to",
          "type": "address"
        },
        {
          "indexed": false,
          "internalType": "uint256[]",
          "name": "ids",
          "type": "uint256[]"
        },
        {
          "indexed": false,
          "internalType": "uint256[]",
          "name": "values",
          "type": "uint256[]"
        }
      ],
      "name": "TransferBatch",
      "type": "event"
    },
    {
      "anonymous": false,
      "inputs": [
        {
          "indexed": true,
          "internalType": "address",
          "name": "operator",
          "type": "address"
        },
        {
          "indexed": true,
          "internalType": "address",
          "name": "from",
          "type": "address"
        },
        {
          "indexed": true,
          "internalType": "address",
          "name": "to",
          "type": "address"
        },
        {
          "indexed": false,
          "internalType": "uint256",
          "name": "id",
          "type": "uint256"
        },
        {
          "indexed": false,
          "internalType": "uint256",
          "name": "value",
          "type": "uint256"
        }
      ],
      "name": "TransferSingle",
      "type": "event"
    },
    {
      "anonymous": false,
      "inputs": [
        {
          "indexed": false,
          "internalType": "string",
          "name": "value",
          "type": "string"
        },
        {
          "indexed": true,
          "internalType": "uint256",
          "name": "id",
          "type": "uint256"
        }
      ],
      "name": "URI",
      "type": "event"
    },
    {
      "inputs": [
        {
          "internalType": "address",
          "name": "account",
          "type": "address"
        },
        {
          "internalType": "uint256",
          "name": "id",
          "type": "uint256"
        }
      ],
      "name": "balanceOf",
      "outputs": [
        {
          "internalType": "uint256",
          "name": "",
          "type": "uint256"
        }
      ],
      "stateMutability": "view",
      "type": "function"
    },
    {
      "inputs": [
        {
          "internalType": "address[]",
          "name": "accounts",
          "type": "address[]"
        },
        {
          "internalType": "uint256[]",
          "name": "ids",
          "type": "uint256[]"
        }
      ],
      "name": "balanceOfBatch",
      "outputs": [
        {
          "internalType": "uint256[]",
          "name": "",
          "type": "uint256[]"
        }
      ],
      "stateMutability": "view",
      "type": "function"
    },
    {
      "inputs": [
        {
          "internalType": "uint256",
          "name": "tokenId",
          "type": "uint256"
        }
      ],
      "name": "getTokenAmount",
      "outputs": [
        {
          "internalType": "uint256",
          "name": "amount",
          "type": "uint256"
        }
      ],
      "stateMutability": "view",
      "type": "function"
    },
    {
      "inputs": [],
      "name": "getTokenIDs",
      "outputs": [
        {
          "internalType": "uint256[]",
          "name": "tokenIDs",
          "type": "uint256[]"
        }
      ],
      "stateMutability": "view",
      "type": "function"
    },
    {
      "inputs": [
        {
          "internalType": "address",
          "name": "account",
          "type": "address"
        },
        {
          "internalType": "uint256",
          "name": "tokenId",
          "type": "uint256"
        }
      ],
      "name": "getTokenURI",
      "outputs": [
        {
          "internalType": "bytes",
          "name": "uri",
          "type": "bytes"
        }
      ],
      "stateMutability": "view",
      "type": "function"
    },
    {
      "inputs": [
        {
          "internalType": "address",
          "name": "account",
          "type": "address"
        },
        {
          "internalType": "address",
          "name": "operator",
          "type": "address"
        }
      ],
      "name": "isApprovedForAll",
      "outputs": [
        {
          "internalType": "bool",
          "name": "",
          "type": "bool"
        }
      ],
      "stateMutability": "view",
      "type": "function"
    },
    {
      "inputs": [
        {
          "internalType": "uint256",
          "name": "_amount",
          "type": "uint256"
        },
        {
          "internalType": "string",
          "name": "_uri",
          "type": "string"
        }
      ],
      "name": "mintMusic",
      "outputs": [],
      "stateMutability": "nonpayable",
      "type": "function"
    },
    {
      "inputs": [
        {
          "internalType": "address",
          "name": "from",
          "type": "address"
        },
        {
          "internalType": "address",
          "name": "to",
          "type": "address"
        },
        {
          "internalType": "uint256[]",
          "name": "ids",
          "type": "uint256[]"
        },
        {
          "internalType": "uint256[]",
          "name": "amounts",
          "type": "uint256[]"
        },
        {
          "internalType": "bytes",
          "name": "data",
          "type": "bytes"
        }
      ],
      "name": "safeBatchTransferFrom",
      "outputs": [],
      "stateMutability": "nonpayable",
      "type": "function"
    },
    {
      "inputs": [
        {
          "internalType": "address",
          "name": "from",
          "type": "address"
        },
        {
          "internalType": "address",
          "name": "to",
          "type": "address"
        },
        {
          "internalType": "uint256",
          "name": "id",
          "type": "uint256"
        },
        {
          "internalType": "uint256",
          "name": "amount",
          "type": "uint256"
        },
        {
          "internalType": "bytes",
          "name": "data",
          "type": "bytes"
        }
      ],
      "name": "safeTransferFrom",
      "outputs": [],
      "stateMutability": "nonpayable",
      "type": "function"
    },
    {
      "inputs": [
        {
          "internalType": "address",
          "name": "operator",
          "type": "address"
        },
        {
          "internalType": "bool",
          "name": "approved",
          "type": "bool"
        }
      ],
      "name": "setApprovalForAll",
      "outputs": [],
      "stateMutability": "nonpayable",
      "type": "function"
    },
    {
      "inputs": [
        {
          "internalType": "bytes4",
          "name": "interfaceId",
          "type": "bytes4"
        }
      ],
      "name": "supportsInterface",
      "outputs": [
        {
          "internalType": "bool",
          "name": "",
          "type": "bool"
        }
      ],
      "stateMutability": "view",
      "type": "function"
    },
    {
      "inputs": [
        {
          "internalType": "uint256",
          "name": "tokenId",
          "type": "uint256"
        },
        {
          "internalType": "uint256",
          "name": "amount",
          "type": "uint256"
        },
        {
          "internalType": "address",
          "name": "newOwner",
          "type": "address"
        },
        {
          "internalType": "address",
          "name": "oldOwner",
          "type": "address"
        }
      ],
      "name": "updateOwnedTokenList",
      "outputs": [],
      "stateMutability": "nonpayable",
      "type": "function"
    },
    {
      "inputs": [
        {
          "internalType": "uint256",
          "name": "",
          "type": "uint256"
        }
      ],
      "name": "uri",
      "outputs": [
        {
          "internalType": "string",
          "name": "",
          "type": "string"
        }
      ],
      "stateMutability": "view",
      "type": "function"
    }
  ],
  "bytecode": "0x60806040523480156200001157600080fd5b506040518060200160405280600081525062000033816200005160201b60201c565b506200004b60036200006d60201b62000f5d1760201c565b62000198565b80600290805190602001906200006992919062000083565b5050565b6001816000016000828254019250508190555050565b828054620000919062000133565b90600052602060002090601f016020900481019282620000b5576000855562000101565b82601f10620000d057805160ff191683800117855562000101565b8280016001018555821562000101579182015b8281111562000100578251825591602001919060010190620000e3565b5b50905062000110919062000114565b5090565b5b808211156200012f57600081600090555060010162000115565b5090565b600060028204905060018216806200014c57607f821691505b6020821081141562000163576200016262000169565b5b50919050565b7f4e487b7100000000000000000000000000000000000000000000000000000000600052602260045260246000fd5b6130cd80620001a86000396000f3fe608060405234801561001057600080fd5b50600436106100ce5760003560e01c806385b842df1161008c578063a68d1e1611610066578063a68d1e1614610233578063c2507ac114610251578063e985e9c514610281578063f242432a146102b1576100ce565b806385b842df146101df57806390a89520146101fb578063a22cb46514610217576100ce565b8062fdd58e146100d357806301ffc9a7146101035780630b63fd62146101335780630e89341c146101635780632eb2c2d6146101935780634e1273f4146101af575b600080fd5b6100ed60048036038101906100e89190612147565b6102cd565b6040516100fa9190612b81565b60405180910390f35b61011d600480360381019061011891906121ef565b610396565b60405161012a91906129c2565b60405180910390f35b61014d60048036038101906101489190612147565b610478565b60405161015a91906129dd565b60405180910390f35b61017d60048036038101906101789190612241565b61055e565b60405161018a91906129ff565b60405180910390f35b6101ad60048036038101906101a89190611fbd565b6105f2565b005b6101c960048036038101906101c49190612183565b610693565b6040516101d69190612969565b60405180910390f35b6101f960048036038101906101f491906122be565b610844565b005b6102156004803603810190610210919061226a565b610a45565b005b610231600480360381019061022c919061210b565b610bb2565b005b61023b610d33565b6040516102489190612969565b60405180910390f35b61026b60048036038101906102669190612241565b610dcb565b6040516102789190612b81565b60405180910390f35b61029b60048036038101906102969190611f81565b610e28565b6040516102a891906129c2565b60405180910390f35b6102cb60048036038101906102c6919061207c565b610ebc565b005b60008073ffffffffffffffffffffffffffffffffffffffff168373ffffffffffffffffffffffffffffffffffffffff16141561033e576040517f08c379a000000000000000000000000000000000000000000000000000000000815260040161033590612a61565b60405180910390fd5b60008083815260200190815260200160002060008473ffffffffffffffffffffffffffffffffffffffff1673ffffffffffffffffffffffffffffffffffffffff16815260200190815260200160002054905092915050565b60007fd9b67a26000000000000000000000000000000000000000000000000000000007bffffffffffffffffffffffffffffffffffffffffffffffffffffffff1916827bffffffffffffffffffffffffffffffffffffffffffffffffffffffff1916148061046157507f0e89341c000000000000000000000000000000000000000000000000000000007bffffffffffffffffffffffffffffffffffffffffffffffffffffffff1916827bffffffffffffffffffffffffffffffffffffffffffffffffffffffff1916145b80610471575061047082610f73565b5b9050919050565b6060600460008473ffffffffffffffffffffffffffffffffffffffff1673ffffffffffffffffffffffffffffffffffffffff168152602001908152602001600020600101600083815260200190815260200160002080546104d890612e5f565b80601f016020809104026020016040519081016040528092919081815260200182805461050490612e5f565b80156105515780601f1061052657610100808354040283529160200191610551565b820191906000526020600020905b81548152906001019060200180831161053457829003601f168201915b5050505050905092915050565b60606002805461056d90612e5f565b80601f016020809104026020016040519081016040528092919081815260200182805461059990612e5f565b80156105e65780601f106105bb576101008083540402835291602001916105e6565b820191906000526020600020905b8154815290600101906020018083116105c957829003601f168201915b50505050509050919050565b6105fa610fdd565b73ffffffffffffffffffffffffffffffffffffffff168573ffffffffffffffffffffffffffffffffffffffff161480610640575061063f8561063a610fdd565b610e28565b5b61067f576040517f08c379a000000000000000000000000000000000000000000000000000000000815260040161067690612ac1565b60405180910390fd5b61068c8585858585610fe5565b5050505050565b606081518351146106d9576040517f08c379a00000000000000000000000000000000000000000000000000000000081526004016106d090612b21565b60405180910390fd5b6000835167ffffffffffffffff81111561071c577f4e487b7100000000000000000000000000000000000000000000000000000000600052604160045260246000fd5b60405190808252806020026020018201604052801561074a5781602001602082028036833780820191505090505b50905060005b8451811015610839576107e3858281518110610795577f4e487b7100000000000000000000000000000000000000000000000000000000600052603260045260246000fd5b60200260200101518583815181106107d6577f4e487b7100000000000000000000000000000000000000000000000000000000600052603260045260246000fd5b60200260200101516102cd565b82828151811061081c577f4e487b7100000000000000000000000000000000000000000000000000000000600052603260045260246000fd5b6020026020010181815250508061083290612e91565b9050610750565b508091505092915050565b600460008373ffffffffffffffffffffffffffffffffffffffff1673ffffffffffffffffffffffffffffffffffffffff16815260200190815260200160002060000184908060018154018082558091505060019003906000526020600020016000909190919091505582600460008473ffffffffffffffffffffffffffffffffffffffff1673ffffffffffffffffffffffffffffffffffffffff168152602001908152602001600020600201600086815260200190815260200160002060008282546109109190612d1f565b92505081905550600460008273ffffffffffffffffffffffffffffffffffffffff1673ffffffffffffffffffffffffffffffffffffffff1681526020019081526020016000206001016000858152602001908152602001600020600460008473ffffffffffffffffffffffffffffffffffffffff1673ffffffffffffffffffffffffffffffffffffffff16815260200190815260200160002060010160008681526020019081526020016000209080546109c990612e5f565b6109d4929190611bec565b5082600460008373ffffffffffffffffffffffffffffffffffffffff1673ffffffffffffffffffffffffffffffffffffffff16815260200190815260200160002060020160008681526020019081526020016000206000828254610a389190612d75565b9250508190555050505050565b6000819050610a5f33610a586003611345565b8584611353565b600460003373ffffffffffffffffffffffffffffffffffffffff1673ffffffffffffffffffffffffffffffffffffffff168152602001908152602001600020600001610aab6003611345565b908060018154018082558091505060019003906000526020600020016000909190919091505582600460003373ffffffffffffffffffffffffffffffffffffffff1673ffffffffffffffffffffffffffffffffffffffff1681526020019081526020016000206002016000610b206003611345565b81526020019081526020016000208190555080600460003373ffffffffffffffffffffffffffffffffffffffff1673ffffffffffffffffffffffffffffffffffffffff1681526020019081526020016000206001016000610b816003611345565b81526020019081526020016000209080519060200190610ba2929190611c79565b50610bad6003610f5d565b505050565b8173ffffffffffffffffffffffffffffffffffffffff16610bd1610fdd565b73ffffffffffffffffffffffffffffffffffffffff161415610c28576040517f08c379a0000000000000000000000000000000000000000000000000000000008152600401610c1f90612b01565b60405180910390fd5b8060016000610c35610fdd565b73ffffffffffffffffffffffffffffffffffffffff1673ffffffffffffffffffffffffffffffffffffffff16815260200190815260200160002060008473ffffffffffffffffffffffffffffffffffffffff1673ffffffffffffffffffffffffffffffffffffffff16815260200190815260200160002060006101000a81548160ff0219169083151502179055508173ffffffffffffffffffffffffffffffffffffffff16610ce2610fdd565b73ffffffffffffffffffffffffffffffffffffffff167f17307eab39ab6107e8899845ad3d59bd9653f200f220920489ca2b5937696c3183604051610d2791906129c2565b60405180910390a35050565b6060600460003373ffffffffffffffffffffffffffffffffffffffff1673ffffffffffffffffffffffffffffffffffffffff168152602001908152602001600020600001805480602002602001604051908101604052809291908181526020018280548015610dc157602002820191906000526020600020905b815481526020019060010190808311610dad575b5050505050905090565b6000600460003373ffffffffffffffffffffffffffffffffffffffff1673ffffffffffffffffffffffffffffffffffffffff1681526020019081526020016000206002016000838152602001908152602001600020549050919050565b6000600160008473ffffffffffffffffffffffffffffffffffffffff1673ffffffffffffffffffffffffffffffffffffffff16815260200190815260200160002060008373ffffffffffffffffffffffffffffffffffffffff1673ffffffffffffffffffffffffffffffffffffffff16815260200190815260200160002060009054906101000a900460ff16905092915050565b610ec4610fdd565b73ffffffffffffffffffffffffffffffffffffffff168573ffffffffffffffffffffffffffffffffffffffff161480610f0a5750610f0985610f04610fdd565b610e28565b5b610f49576040517f08c379a0000000000000000000000000000000000000000000000000000000008152600401610f4090612a81565b60405180910390fd5b610f5685858585856114e9565b5050505050565b6001816000016000828254019250508190555050565b60007f01ffc9a7000000000000000000000000000000000000000000000000000000007bffffffffffffffffffffffffffffffffffffffffffffffffffffffff1916827bffffffffffffffffffffffffffffffffffffffffffffffffffffffff1916149050919050565b600033905090565b8151835114611029576040517f08c379a000000000000000000000000000000000000000000000000000000000815260040161102090612b41565b60405180910390fd5b600073ffffffffffffffffffffffffffffffffffffffff168473ffffffffffffffffffffffffffffffffffffffff161415611099576040517f08c379a000000000000000000000000000000000000000000000000000000000815260040161109090612aa1565b60405180910390fd5b60006110a3610fdd565b90506110b381878787878761176b565b60005b84518110156112b05760008582815181106110fa577f4e487b7100000000000000000000000000000000000000000000000000000000600052603260045260246000fd5b60200260200101519050600085838151811061113f577f4e487b7100000000000000000000000000000000000000000000000000000000600052603260045260246000fd5b60200260200101519050600080600084815260200190815260200160002060008b73ffffffffffffffffffffffffffffffffffffffff1673ffffffffffffffffffffffffffffffffffffffff168152602001908152602001600020549050818110156111e0576040517f08c379a00000000000000000000000000000000000000000000000000000000081526004016111d790612ae1565b60405180910390fd5b81810360008085815260200190815260200160002060008c73ffffffffffffffffffffffffffffffffffffffff1673ffffffffffffffffffffffffffffffffffffffff168152602001908152602001600020819055508160008085815260200190815260200160002060008b73ffffffffffffffffffffffffffffffffffffffff1673ffffffffffffffffffffffffffffffffffffffff16815260200190815260200160002060008282546112959190612d1f565b92505081905550505050806112a990612e91565b90506110b6565b508473ffffffffffffffffffffffffffffffffffffffff168673ffffffffffffffffffffffffffffffffffffffff168273ffffffffffffffffffffffffffffffffffffffff167f4a39dc06d4c0dbc64b70af90fd698a233a518aa5d07e595d983b8c0526c8f7fb878760405161132792919061298b565b60405180910390a461133d818787878787611773565b505050505050565b600081600001549050919050565b600073ffffffffffffffffffffffffffffffffffffffff168473ffffffffffffffffffffffffffffffffffffffff1614156113c3576040517f08c379a00000000000000000000000000000000000000000000000000000000081526004016113ba90612b61565b60405180910390fd5b60006113cd610fdd565b90506113ee816000876113df88611943565b6113e888611943565b8761176b565b8260008086815260200190815260200160002060008773ffffffffffffffffffffffffffffffffffffffff1673ffffffffffffffffffffffffffffffffffffffff168152602001908152602001600020600082825461144d9190612d1f565b925050819055508473ffffffffffffffffffffffffffffffffffffffff16600073ffffffffffffffffffffffffffffffffffffffff168273ffffffffffffffffffffffffffffffffffffffff167fc3d58168c5ae7397731d063d5bbf3d657854427343f4c083240f7aacaa2d0f6287876040516114cb929190612b9c565b60405180910390a46114e281600087878787611a09565b5050505050565b600073ffffffffffffffffffffffffffffffffffffffff168473ffffffffffffffffffffffffffffffffffffffff161415611559576040517f08c379a000000000000000000000000000000000000000000000000000000000815260040161155090612aa1565b60405180910390fd5b6000611563610fdd565b905061158381878761157488611943565b61157d88611943565b8761176b565b600080600086815260200190815260200160002060008873ffffffffffffffffffffffffffffffffffffffff1673ffffffffffffffffffffffffffffffffffffffff1681526020019081526020016000205490508381101561161a576040517f08c379a000000000000000000000000000000000000000000000000000000000815260040161161190612ae1565b60405180910390fd5b83810360008087815260200190815260200160002060008973ffffffffffffffffffffffffffffffffffffffff1673ffffffffffffffffffffffffffffffffffffffff168152602001908152602001600020819055508360008087815260200190815260200160002060008873ffffffffffffffffffffffffffffffffffffffff1673ffffffffffffffffffffffffffffffffffffffff16815260200190815260200160002060008282546116cf9190612d1f565b925050819055508573ffffffffffffffffffffffffffffffffffffffff168773ffffffffffffffffffffffffffffffffffffffff168373ffffffffffffffffffffffffffffffffffffffff167fc3d58168c5ae7397731d063d5bbf3d657854427343f4c083240f7aacaa2d0f62888860405161174c929190612b9c565b60405180910390a4611762828888888888611a09565b50505050505050565b505050505050565b6117928473ffffffffffffffffffffffffffffffffffffffff16611bd9565b1561193b578373ffffffffffffffffffffffffffffffffffffffff1663bc197c8187878686866040518663ffffffff1660e01b81526004016117d89594939291906128a7565b602060405180830381600087803b1580156117f257600080fd5b505af192505050801561182357506040513d601f19601f820116820180604052508101906118209190612218565b60015b6118b25761182f612f85565b8061183a5750611877565b806040517f08c379a000000000000000000000000000000000000000000000000000000000815260040161186e91906129ff565b60405180910390fd5b6040517f08c379a00000000000000000000000000000000000000000000000000000000081526004016118a990612a21565b60405180910390fd5b63bc197c8160e01b7bffffffffffffffffffffffffffffffffffffffffffffffffffffffff1916817bffffffffffffffffffffffffffffffffffffffffffffffffffffffff191614611939576040517f08c379a000000000000000000000000000000000000000000000000000000000815260040161193090612a41565b60405180910390fd5b505b505050505050565b60606000600167ffffffffffffffff811115611988577f4e487b7100000000000000000000000000000000000000000000000000000000600052604160045260246000fd5b6040519080825280602002602001820160405280156119b65781602001602082028036833780820191505090505b50905082816000815181106119f4577f4e487b7100000000000000000000000000000000000000000000000000000000600052603260045260246000fd5b60200260200101818152505080915050919050565b611a288473ffffffffffffffffffffffffffffffffffffffff16611bd9565b15611bd1578373ffffffffffffffffffffffffffffffffffffffff1663f23a6e6187878686866040518663ffffffff1660e01b8152600401611a6e95949392919061290f565b602060405180830381600087803b158015611a8857600080fd5b505af1925050508015611ab957506040513d601f19601f82011682018060405250810190611ab69190612218565b60015b611b4857611ac5612f85565b80611ad05750611b0d565b806040517f08c379a0000000000000000000000000000000000000000000000000000000008152600401611b0491906129ff565b60405180910390fd5b6040517f08c379a0000000000000000000000000000000000000000000000000000000008152600401611b3f90612a21565b60405180910390fd5b63f23a6e6160e01b7bffffffffffffffffffffffffffffffffffffffffffffffffffffffff1916817bffffffffffffffffffffffffffffffffffffffffffffffffffffffff191614611bcf576040517f08c379a0000000000000000000000000000000000000000000000000000000008152600401611bc690612a41565b60405180910390fd5b505b505050505050565b600080823b905060008111915050919050565b828054611bf890612e5f565b90600052602060002090601f016020900481019282611c1a5760008555611c68565b82601f10611c2b5780548555611c68565b82800160010185558215611c6857600052602060002091601f016020900482015b82811115611c67578254825591600101919060010190611c4c565b5b509050611c759190611cff565b5090565b828054611c8590612e5f565b90600052602060002090601f016020900481019282611ca75760008555611cee565b82601f10611cc057805160ff1916838001178555611cee565b82800160010185558215611cee579182015b82811115611ced578251825591602001919060010190611cd2565b5b509050611cfb9190611cff565b5090565b5b80821115611d18576000816000905550600101611d00565b5090565b6000611d2f611d2a84612bf6565b612bc5565b90508083825260208201905082856020860282011115611d4e57600080fd5b60005b85811015611d7e5781611d648882611e70565b845260208401935060208301925050600181019050611d51565b5050509392505050565b6000611d9b611d9684612c22565b612bc5565b90508083825260208201905082856020860282011115611dba57600080fd5b60005b85811015611dea5781611dd08882611f6c565b845260208401935060208301925050600181019050611dbd565b5050509392505050565b6000611e07611e0284612c4e565b612bc5565b905082815260208101848484011115611e1f57600080fd5b611e2a848285612e1d565b509392505050565b6000611e45611e4084612c7e565b612bc5565b905082815260208101848484011115611e5d57600080fd5b611e68848285612e1d565b509392505050565b600081359050611e7f8161303b565b92915050565b600082601f830112611e9657600080fd5b8135611ea6848260208601611d1c565b91505092915050565b600082601f830112611ec057600080fd5b8135611ed0848260208601611d88565b91505092915050565b600081359050611ee881613052565b92915050565b600081359050611efd81613069565b92915050565b600081519050611f1281613069565b92915050565b600082601f830112611f2957600080fd5b8135611f39848260208601611df4565b91505092915050565b600082601f830112611f5357600080fd5b8135611f63848260208601611e32565b91505092915050565b600081359050611f7b81613080565b92915050565b60008060408385031215611f9457600080fd5b6000611fa285828601611e70565b9250506020611fb385828601611e70565b9150509250929050565b600080600080600060a08688031215611fd557600080fd5b6000611fe388828901611e70565b9550506020611ff488828901611e70565b945050604086013567ffffffffffffffff81111561201157600080fd5b61201d88828901611eaf565b935050606086013567ffffffffffffffff81111561203a57600080fd5b61204688828901611eaf565b925050608086013567ffffffffffffffff81111561206357600080fd5b61206f88828901611f18565b9150509295509295909350565b600080600080600060a0868803121561209457600080fd5b60006120a288828901611e70565b95505060206120b388828901611e70565b94505060406120c488828901611f6c565b93505060606120d588828901611f6c565b925050608086013567ffffffffffffffff8111156120f257600080fd5b6120fe88828901611f18565b9150509295509295909350565b6000806040838503121561211e57600080fd5b600061212c85828601611e70565b925050602061213d85828601611ed9565b9150509250929050565b6000806040838503121561215a57600080fd5b600061216885828601611e70565b925050602061217985828601611f6c565b9150509250929050565b6000806040838503121561219657600080fd5b600083013567ffffffffffffffff8111156121b057600080fd5b6121bc85828601611e85565b925050602083013567ffffffffffffffff8111156121d957600080fd5b6121e585828601611eaf565b9150509250929050565b60006020828403121561220157600080fd5b600061220f84828501611eee565b91505092915050565b60006020828403121561222a57600080fd5b600061223884828501611f03565b91505092915050565b60006020828403121561225357600080fd5b600061226184828501611f6c565b91505092915050565b6000806040838503121561227d57600080fd5b600061228b85828601611f6c565b925050602083013567ffffffffffffffff8111156122a857600080fd5b6122b485828601611f42565b9150509250929050565b600080600080608085870312156122d457600080fd5b60006122e287828801611f6c565b94505060206122f387828801611f6c565b935050604061230487828801611e70565b925050606061231587828801611e70565b91505092959194509250565b600061232d8383612889565b60208301905092915050565b61234281612da9565b82525050565b600061235382612cbe565b61235d8185612cec565b935061236883612cae565b8060005b838110156123995781516123808882612321565b975061238b83612cdf565b92505060018101905061236c565b5085935050505092915050565b6123af81612dbb565b82525050565b60006123c082612cc9565b6123ca8185612cfd565b93506123da818560208601612e2c565b6123e381612f67565b840191505092915050565b60006123f982612cd4565b6124038185612d0e565b9350612413818560208601612e2c565b61241c81612f67565b840191505092915050565b6000612434603483612d0e565b91507f455243313135353a207472616e7366657220746f206e6f6e204552433131353560008301527f526563656976657220696d706c656d656e7465720000000000000000000000006020830152604082019050919050565b600061249a602883612d0e565b91507f455243313135353a204552433131353552656365697665722072656a6563746560008301527f6420746f6b656e730000000000000000000000000000000000000000000000006020830152604082019050919050565b6000612500602b83612d0e565b91507f455243313135353a2062616c616e636520717565727920666f7220746865207a60008301527f65726f20616464726573730000000000000000000000000000000000000000006020830152604082019050919050565b6000612566602983612d0e565b91507f455243313135353a2063616c6c6572206973206e6f74206f776e6572206e6f7260008301527f20617070726f76656400000000000000000000000000000000000000000000006020830152604082019050919050565b60006125cc602583612d0e565b91507f455243313135353a207472616e7366657220746f20746865207a65726f20616460008301527f64726573730000000000000000000000000000000000000000000000000000006020830152604082019050919050565b6000612632603283612d0e565b91507f455243313135353a207472616e736665722063616c6c6572206973206e6f742060008301527f6f776e6572206e6f7220617070726f76656400000000000000000000000000006020830152604082019050919050565b6000612698602a83612d0e565b91507f455243313135353a20696e73756666696369656e742062616c616e636520666f60008301527f72207472616e73666572000000000000000000000000000000000000000000006020830152604082019050919050565b60006126fe602983612d0e565b91507f455243313135353a2073657474696e6720617070726f76616c2073746174757360008301527f20666f722073656c6600000000000000000000000000000000000000000000006020830152604082019050919050565b6000612764602983612d0e565b91507f455243313135353a206163636f756e747320616e6420696473206c656e67746860008301527f206d69736d6174636800000000000000000000000000000000000000000000006020830152604082019050919050565b60006127ca602883612d0e565b91507f455243313135353a2069647320616e6420616d6f756e7473206c656e6774682060008301527f6d69736d617463680000000000000000000000000000000000000000000000006020830152604082019050919050565b6000612830602183612d0e565b91507f455243313135353a206d696e7420746f20746865207a65726f2061646472657360008301527f73000000000000000000000000000000000000000000000000000000000000006020830152604082019050919050565b61289281612e13565b82525050565b6128a181612e13565b82525050565b600060a0820190506128bc6000830188612339565b6128c96020830187612339565b81810360408301526128db8186612348565b905081810360608301526128ef8185612348565b9050818103608083015261290381846123b5565b90509695505050505050565b600060a0820190506129246000830188612339565b6129316020830187612339565b61293e6040830186612898565b61294b6060830185612898565b818103608083015261295d81846123b5565b90509695505050505050565b600060208201905081810360008301526129838184612348565b905092915050565b600060408201905081810360008301526129a58185612348565b905081810360208301526129b98184612348565b90509392505050565b60006020820190506129d760008301846123a6565b92915050565b600060208201905081810360008301526129f781846123b5565b905092915050565b60006020820190508181036000830152612a1981846123ee565b905092915050565b60006020820190508181036000830152612a3a81612427565b9050919050565b60006020820190508181036000830152612a5a8161248d565b9050919050565b60006020820190508181036000830152612a7a816124f3565b9050919050565b60006020820190508181036000830152612a9a81612559565b9050919050565b60006020820190508181036000830152612aba816125bf565b9050919050565b60006020820190508181036000830152612ada81612625565b9050919050565b60006020820190508181036000830152612afa8161268b565b9050919050565b60006020820190508181036000830152612b1a816126f1565b9050919050565b60006020820190508181036000830152612b3a81612757565b9050919050565b60006020820190508181036000830152612b5a816127bd565b9050919050565b60006020820190508181036000830152612b7a81612823565b9050919050565b6000602082019050612b966000830184612898565b92915050565b6000604082019050612bb16000830185612898565b612bbe6020830184612898565b9392505050565b6000604051905081810181811067ffffffffffffffff82111715612bec57612beb612f38565b5b8060405250919050565b600067ffffffffffffffff821115612c1157612c10612f38565b5b602082029050602081019050919050565b600067ffffffffffffffff821115612c3d57612c3c612f38565b5b602082029050602081019050919050565b600067ffffffffffffffff821115612c6957612c68612f38565b5b601f19601f8301169050602081019050919050565b600067ffffffffffffffff821115612c9957612c98612f38565b5b601f19601f8301169050602081019050919050565b6000819050602082019050919050565b600081519050919050565b600081519050919050565b600081519050919050565b6000602082019050919050565b600082825260208201905092915050565b600082825260208201905092915050565b600082825260208201905092915050565b6000612d2a82612e13565b9150612d3583612e13565b9250827fffffffffffffffffffffffffffffffffffffffffffffffffffffffffffffffff03821115612d6a57612d69612eda565b5b828201905092915050565b6000612d8082612e13565b9150612d8b83612e13565b925082821015612d9e57612d9d612eda565b5b828203905092915050565b6000612db482612df3565b9050919050565b60008115159050919050565b60007fffffffff0000000000000000000000000000000000000000000000000000000082169050919050565b600073ffffffffffffffffffffffffffffffffffffffff82169050919050565b6000819050919050565b82818337600083830152505050565b60005b83811015612e4a578082015181840152602081019050612e2f565b83811115612e59576000848401525b50505050565b60006002820490506001821680612e7757607f821691505b60208210811415612e8b57612e8a612f09565b5b50919050565b6000612e9c82612e13565b91507fffffffffffffffffffffffffffffffffffffffffffffffffffffffffffffffff821415612ecf57612ece612eda565b5b600182019050919050565b7f4e487b7100000000000000000000000000000000000000000000000000000000600052601160045260246000fd5b7f4e487b7100000000000000000000000000000000000000000000000000000000600052602260045260246000fd5b7f4e487b7100000000000000000000000000000000000000000000000000000000600052604160045260246000fd5b6000601f19601f8301169050919050565b60008160e01c9050919050565b600060443d1015612f9557613038565b60046000803e612fa6600051612f78565b6308c379a08114612fb75750613038565b60405160043d036004823e80513d602482011167ffffffffffffffff82111715612fe357505050613038565b808201805167ffffffffffffffff811115613002575050505050613038565b8060208301013d850181111561301d57505050505050613038565b61302682612f67565b60208401016040528296505050505050505b90565b61304481612da9565b811461304f57600080fd5b50565b61305b81612dbb565b811461306657600080fd5b50565b61307281612dc7565b811461307d57600080fd5b50565b61308981612e13565b811461309457600080fd5b5056fea26469706673582212200d40be065c7b6ac523b43ea31c71b5214473e185588b6c536a8ee2d8cb9df81864736f6c63430008000033",
  "linkReferences": {},
  "deployedLinkReferences": {}
}