{
  "_format": "hh-sol-artifact-1",
  "contractName": "MusicFactory",
  "sourceName": "contracts/MusicFactory.sol",
  "abi": [
    {
      "inputs": [],
      "stateMutability": "nonpayable",
      "type": "constructor"
    },
    {
      "anonymous": false,
      "inputs": [
        {
          "indexed": true,
          "internalType": "address",
          "name": "account",
          "type": "address"
        },
        {
          "indexed": true,
          "internalType": "address",
          "name": "operator",
          "type": "address"
        },
        {
          "indexed": false,
          "internalType": "bool",
          "name": "approved",
          "type": "bool"
        }
      ],
      "name": "ApprovalForAll",
      "type": "event"
    },
    {
      "anonymous": false,
      "inputs": [
        {
          "indexed": true,
          "internalType": "address",
          "name": "operator",
          "type": "address"
        },
        {
          "indexed": true,
          "internalType": "address",
          "name": "from",
          "type": "address"
        },
        {
          "indexed": true,
          "internalType": "address",
          "name": "to",
          "type": "address"
        },
        {
          "indexed": false,
          "internalType": "uint256[]",
          "name": "ids",
          "type": "uint256[]"
        },
        {
          "indexed": false,
          "internalType": "uint256[]",
          "name": "values",
          "type": "uint256[]"
        }
      ],
      "name": "TransferBatch",
      "type": "event"
    },
    {
      "anonymous": false,
      "inputs": [
        {
          "indexed": true,
          "internalType": "address",
          "name": "operator",
          "type": "address"
        },
        {
          "indexed": true,
          "internalType": "address",
          "name": "from",
          "type": "address"
        },
        {
          "indexed": true,
          "internalType": "address",
          "name": "to",
          "type": "address"
        },
        {
          "indexed": false,
          "internalType": "uint256",
          "name": "id",
          "type": "uint256"
        },
        {
          "indexed": false,
          "internalType": "uint256",
          "name": "value",
          "type": "uint256"
        }
      ],
      "name": "TransferSingle",
      "type": "event"
    },
    {
      "anonymous": false,
      "inputs": [
        {
          "indexed": false,
          "internalType": "string",
          "name": "value",
          "type": "string"
        },
        {
          "indexed": true,
          "internalType": "uint256",
          "name": "id",
          "type": "uint256"
        }
      ],
      "name": "URI",
      "type": "event"
    },
    {
      "inputs": [
        {
          "internalType": "address",
          "name": "account",
          "type": "address"
        },
        {
          "internalType": "uint256",
          "name": "id",
          "type": "uint256"
        }
      ],
      "name": "balanceOf",
      "outputs": [
        {
          "internalType": "uint256",
          "name": "",
          "type": "uint256"
        }
      ],
      "stateMutability": "view",
      "type": "function"
    },
    {
      "inputs": [
        {
          "internalType": "address[]",
          "name": "accounts",
          "type": "address[]"
        },
        {
          "internalType": "uint256[]",
          "name": "ids",
          "type": "uint256[]"
        }
      ],
      "name": "balanceOfBatch",
      "outputs": [
        {
          "internalType": "uint256[]",
          "name": "",
          "type": "uint256[]"
        }
      ],
      "stateMutability": "view",
      "type": "function"
    },
    {
      "inputs": [
        {
          "internalType": "uint256",
          "name": "tokenId",
          "type": "uint256"
        }
      ],
      "name": "getTokenURI",
      "outputs": [
        {
          "internalType": "bytes",
          "name": "uri",
          "type": "bytes"
        }
      ],
      "stateMutability": "view",
      "type": "function"
    },
    {
      "inputs": [
        {
          "internalType": "address",
          "name": "account",
          "type": "address"
        },
        {
          "internalType": "address",
          "name": "operator",
          "type": "address"
        }
      ],
      "name": "isApprovedForAll",
      "outputs": [
        {
          "internalType": "bool",
          "name": "",
          "type": "bool"
        }
      ],
      "stateMutability": "view",
      "type": "function"
    },
    {
      "inputs": [
        {
          "internalType": "uint256",
          "name": "_amount",
          "type": "uint256"
        },
        {
          "internalType": "string",
          "name": "_uri",
          "type": "string"
        }
      ],
      "name": "mintMusic",
      "outputs": [],
      "stateMutability": "nonpayable",
      "type": "function"
    },
    {
      "inputs": [
        {
          "internalType": "address",
          "name": "from",
          "type": "address"
        },
        {
          "internalType": "address",
          "name": "to",
          "type": "address"
        },
        {
          "internalType": "uint256[]",
          "name": "ids",
          "type": "uint256[]"
        },
        {
          "internalType": "uint256[]",
          "name": "amounts",
          "type": "uint256[]"
        },
        {
          "internalType": "bytes",
          "name": "data",
          "type": "bytes"
        }
      ],
      "name": "safeBatchTransferFrom",
      "outputs": [],
      "stateMutability": "nonpayable",
      "type": "function"
    },
    {
      "inputs": [
        {
          "internalType": "address",
          "name": "from",
          "type": "address"
        },
        {
          "internalType": "address",
          "name": "to",
          "type": "address"
        },
        {
          "internalType": "uint256",
          "name": "id",
          "type": "uint256"
        },
        {
          "internalType": "uint256",
          "name": "amount",
          "type": "uint256"
        },
        {
          "internalType": "bytes",
          "name": "data",
          "type": "bytes"
        }
      ],
      "name": "safeTransferFrom",
      "outputs": [],
      "stateMutability": "nonpayable",
      "type": "function"
    },
    {
      "inputs": [
        {
          "internalType": "address",
          "name": "operator",
          "type": "address"
        },
        {
          "internalType": "bool",
          "name": "approved",
          "type": "bool"
        }
      ],
      "name": "setApprovalForAll",
      "outputs": [],
      "stateMutability": "nonpayable",
      "type": "function"
    },
    {
      "inputs": [
        {
          "internalType": "bytes4",
          "name": "interfaceId",
          "type": "bytes4"
        }
      ],
      "name": "supportsInterface",
      "outputs": [
        {
          "internalType": "bool",
          "name": "",
          "type": "bool"
        }
      ],
      "stateMutability": "view",
      "type": "function"
    },
    {
      "inputs": [],
      "name": "tokenId",
      "outputs": [
        {
          "internalType": "uint256",
          "name": "_value",
          "type": "uint256"
        }
      ],
      "stateMutability": "view",
      "type": "function"
    },
    {
      "inputs": [
        {
          "internalType": "uint256",
          "name": "",
          "type": "uint256"
        }
      ],
      "name": "uri",
      "outputs": [
        {
          "internalType": "string",
          "name": "",
          "type": "string"
        }
      ],
      "stateMutability": "view",
      "type": "function"
    }
  ],
  "bytecode": "0x60806040523480156200001157600080fd5b506040518060200160405280600081525062000033816200005160201b60201c565b506200004b60036200006d60201b62000aad1760201c565b62000198565b80600290805190602001906200006992919062000083565b5050565b6001816000016000828254019250508190555050565b828054620000919062000133565b90600052602060002090601f016020900481019282620000b5576000855562000101565b82601f10620000d057805160ff191683800117855562000101565b8280016001018555821562000101579182015b8281111562000100578251825591602001919060010190620000e3565b5b50905062000110919062000114565b5090565b5b808211156200012f57600081600090555060010162000115565b5090565b600060028204905060018216806200014c57607f821691505b6020821081141562000163576200016262000169565b5b50919050565b7f4e487b7100000000000000000000000000000000000000000000000000000000600052602260045260246000fd5b612af980620001a86000396000f3fe608060405234801561001057600080fd5b50600436106100a85760003560e01c80633bb3a24d116100715780633bb3a24d146101775780634e1273f4146101a757806390a89520146101d7578063a22cb465146101f3578063e985e9c51461020f578063f242432a1461023f576100a8565b8062fdd58e146100ad57806301ffc9a7146100dd5780630e89341c1461010d57806317d70f7c1461013d5780632eb2c2d61461015b575b600080fd5b6100c760048036038101906100c29190611c0a565b61025b565b6040516100d491906125e1565b60405180910390f35b6100f760048036038101906100f29190611cb2565b610324565b6040516101049190612422565b60405180910390f35b61012760048036038101906101229190611d04565b610406565b604051610134919061245f565b60405180910390f35b61014561049a565b60405161015291906125e1565b60405180910390f35b61017560048036038101906101709190611a80565b6104a6565b005b610191600480360381019061018c9190611d04565b610547565b60405161019e919061243d565b60405180910390f35b6101c160048036038101906101bc9190611c46565b6105ec565b6040516101ce91906123c9565b60405180910390f35b6101f160048036038101906101ec9190611d2d565b61079d565b005b61020d60048036038101906102089190611bce565b6107f7565b005b61022960048036038101906102249190611a44565b610978565b6040516102369190612422565b60405180910390f35b61025960048036038101906102549190611b3f565b610a0c565b005b60008073ffffffffffffffffffffffffffffffffffffffff168373ffffffffffffffffffffffffffffffffffffffff1614156102cc576040517f08c379a00000000000000000000000000000000000000000000000000000000081526004016102c3906124c1565b60405180910390fd5b60008083815260200190815260200160002060008473ffffffffffffffffffffffffffffffffffffffff1673ffffffffffffffffffffffffffffffffffffffff16815260200190815260200160002054905092915050565b60007fd9b67a26000000000000000000000000000000000000000000000000000000007bffffffffffffffffffffffffffffffffffffffffffffffffffffffff1916827bffffffffffffffffffffffffffffffffffffffffffffffffffffffff191614806103ef57507f0e89341c000000000000000000000000000000000000000000000000000000007bffffffffffffffffffffffffffffffffffffffffffffffffffffffff1916827bffffffffffffffffffffffffffffffffffffffffffffffffffffffff1916145b806103ff57506103fe82610ac3565b5b9050919050565b6060600280546104159061288b565b80601f01602080910402602001604051908101604052809291908181526020018280546104419061288b565b801561048e5780601f106104635761010080835404028352916020019161048e565b820191906000526020600020905b81548152906001019060200180831161047157829003601f168201915b50505050509050919050565b60038060000154905081565b6104ae610b2d565b73ffffffffffffffffffffffffffffffffffffffff168573ffffffffffffffffffffffffffffffffffffffff1614806104f457506104f3856104ee610b2d565b610978565b5b610533576040517f08c379a000000000000000000000000000000000000000000000000000000000815260040161052a90612521565b60405180910390fd5b6105408585858585610b35565b5050505050565b60606004600083815260200190815260200160002080546105679061288b565b80601f01602080910402602001604051908101604052809291908181526020018280546105939061288b565b80156105e05780601f106105b5576101008083540402835291602001916105e0565b820191906000526020600020905b8154815290600101906020018083116105c357829003601f168201915b50505050509050919050565b60608151835114610632576040517f08c379a000000000000000000000000000000000000000000000000000000000815260040161062990612581565b60405180910390fd5b6000835167ffffffffffffffff811115610675577f4e487b7100000000000000000000000000000000000000000000000000000000600052604160045260246000fd5b6040519080825280602002602001820160405280156106a35781602001602082028036833780820191505090505b50905060005b84518110156107925761073c8582815181106106ee577f4e487b7100000000000000000000000000000000000000000000000000000000600052603260045260246000fd5b602002602001015185838151811061072f577f4e487b7100000000000000000000000000000000000000000000000000000000600052603260045260246000fd5b602002602001015161025b565b828281518110610775577f4e487b7100000000000000000000000000000000000000000000000000000000600052603260045260246000fd5b6020026020010181815250508061078b906128bd565b90506106a9565b508091505092915050565b60008190506107b7336107b06003610e95565b8584610ea3565b80600460006107c66003610e95565b815260200190815260200160002090805190602001906107e792919061173c565b506107f26003610aad565b505050565b8173ffffffffffffffffffffffffffffffffffffffff16610816610b2d565b73ffffffffffffffffffffffffffffffffffffffff16141561086d576040517f08c379a000000000000000000000000000000000000000000000000000000000815260040161086490612561565b60405180910390fd5b806001600061087a610b2d565b73ffffffffffffffffffffffffffffffffffffffff1673ffffffffffffffffffffffffffffffffffffffff16815260200190815260200160002060008473ffffffffffffffffffffffffffffffffffffffff1673ffffffffffffffffffffffffffffffffffffffff16815260200190815260200160002060006101000a81548160ff0219169083151502179055508173ffffffffffffffffffffffffffffffffffffffff16610927610b2d565b73ffffffffffffffffffffffffffffffffffffffff167f17307eab39ab6107e8899845ad3d59bd9653f200f220920489ca2b5937696c318360405161096c9190612422565b60405180910390a35050565b6000600160008473ffffffffffffffffffffffffffffffffffffffff1673ffffffffffffffffffffffffffffffffffffffff16815260200190815260200160002060008373ffffffffffffffffffffffffffffffffffffffff1673ffffffffffffffffffffffffffffffffffffffff16815260200190815260200160002060009054906101000a900460ff16905092915050565b610a14610b2d565b73ffffffffffffffffffffffffffffffffffffffff168573ffffffffffffffffffffffffffffffffffffffff161480610a5a5750610a5985610a54610b2d565b610978565b5b610a99576040517f08c379a0000000000000000000000000000000000000000000000000000000008152600401610a90906124e1565b60405180910390fd5b610aa68585858585611039565b5050505050565b6001816000016000828254019250508190555050565b60007f01ffc9a7000000000000000000000000000000000000000000000000000000007bffffffffffffffffffffffffffffffffffffffffffffffffffffffff1916827bffffffffffffffffffffffffffffffffffffffffffffffffffffffff1916149050919050565b600033905090565b8151835114610b79576040517f08c379a0000000000000000000000000000000000000000000000000000000008152600401610b70906125a1565b60405180910390fd5b600073ffffffffffffffffffffffffffffffffffffffff168473ffffffffffffffffffffffffffffffffffffffff161415610be9576040517f08c379a0000000000000000000000000000000000000000000000000000000008152600401610be090612501565b60405180910390fd5b6000610bf3610b2d565b9050610c038187878787876112bb565b60005b8451811015610e00576000858281518110610c4a577f4e487b7100000000000000000000000000000000000000000000000000000000600052603260045260246000fd5b602002602001015190506000858381518110610c8f577f4e487b7100000000000000000000000000000000000000000000000000000000600052603260045260246000fd5b60200260200101519050600080600084815260200190815260200160002060008b73ffffffffffffffffffffffffffffffffffffffff1673ffffffffffffffffffffffffffffffffffffffff16815260200190815260200160002054905081811015610d30576040517f08c379a0000000000000000000000000000000000000000000000000000000008152600401610d2790612541565b60405180910390fd5b81810360008085815260200190815260200160002060008c73ffffffffffffffffffffffffffffffffffffffff1673ffffffffffffffffffffffffffffffffffffffff168152602001908152602001600020819055508160008085815260200190815260200160002060008b73ffffffffffffffffffffffffffffffffffffffff1673ffffffffffffffffffffffffffffffffffffffff1681526020019081526020016000206000828254610de5919061277f565b9250508190555050505080610df9906128bd565b9050610c06565b508473ffffffffffffffffffffffffffffffffffffffff168673ffffffffffffffffffffffffffffffffffffffff168273ffffffffffffffffffffffffffffffffffffffff167f4a39dc06d4c0dbc64b70af90fd698a233a518aa5d07e595d983b8c0526c8f7fb8787604051610e779291906123eb565b60405180910390a4610e8d8187878787876112c3565b505050505050565b600081600001549050919050565b600073ffffffffffffffffffffffffffffffffffffffff168473ffffffffffffffffffffffffffffffffffffffff161415610f13576040517f08c379a0000000000000000000000000000000000000000000000000000000008152600401610f0a906125c1565b60405180910390fd5b6000610f1d610b2d565b9050610f3e81600087610f2f88611493565b610f3888611493565b876112bb565b8260008086815260200190815260200160002060008773ffffffffffffffffffffffffffffffffffffffff1673ffffffffffffffffffffffffffffffffffffffff1681526020019081526020016000206000828254610f9d919061277f565b925050819055508473ffffffffffffffffffffffffffffffffffffffff16600073ffffffffffffffffffffffffffffffffffffffff168273ffffffffffffffffffffffffffffffffffffffff167fc3d58168c5ae7397731d063d5bbf3d657854427343f4c083240f7aacaa2d0f62878760405161101b9291906125fc565b60405180910390a461103281600087878787611559565b5050505050565b600073ffffffffffffffffffffffffffffffffffffffff168473ffffffffffffffffffffffffffffffffffffffff1614156110a9576040517f08c379a00000000000000000000000000000000000000000000000000000000081526004016110a090612501565b60405180910390fd5b60006110b3610b2d565b90506110d38187876110c488611493565b6110cd88611493565b876112bb565b600080600086815260200190815260200160002060008873ffffffffffffffffffffffffffffffffffffffff1673ffffffffffffffffffffffffffffffffffffffff1681526020019081526020016000205490508381101561116a576040517f08c379a000000000000000000000000000000000000000000000000000000000815260040161116190612541565b60405180910390fd5b83810360008087815260200190815260200160002060008973ffffffffffffffffffffffffffffffffffffffff1673ffffffffffffffffffffffffffffffffffffffff168152602001908152602001600020819055508360008087815260200190815260200160002060008873ffffffffffffffffffffffffffffffffffffffff1673ffffffffffffffffffffffffffffffffffffffff168152602001908152602001600020600082825461121f919061277f565b925050819055508573ffffffffffffffffffffffffffffffffffffffff168773ffffffffffffffffffffffffffffffffffffffff168373ffffffffffffffffffffffffffffffffffffffff167fc3d58168c5ae7397731d063d5bbf3d657854427343f4c083240f7aacaa2d0f62888860405161129c9291906125fc565b60405180910390a46112b2828888888888611559565b50505050505050565b505050505050565b6112e28473ffffffffffffffffffffffffffffffffffffffff16611729565b1561148b578373ffffffffffffffffffffffffffffffffffffffff1663bc197c8187878686866040518663ffffffff1660e01b8152600401611328959493929190612307565b602060405180830381600087803b15801561134257600080fd5b505af192505050801561137357506040513d601f19601f820116820180604052508101906113709190611cdb565b60015b6114025761137f6129b1565b8061138a57506113c7565b806040517f08c379a00000000000000000000000000000000000000000000000000000000081526004016113be919061245f565b60405180910390fd5b6040517f08c379a00000000000000000000000000000000000000000000000000000000081526004016113f990612481565b60405180910390fd5b63bc197c8160e01b7bffffffffffffffffffffffffffffffffffffffffffffffffffffffff1916817bffffffffffffffffffffffffffffffffffffffffffffffffffffffff191614611489576040517f08c379a0000000000000000000000000000000000000000000000000000000008152600401611480906124a1565b60405180910390fd5b505b505050505050565b60606000600167ffffffffffffffff8111156114d8577f4e487b7100000000000000000000000000000000000000000000000000000000600052604160045260246000fd5b6040519080825280602002602001820160405280156115065781602001602082028036833780820191505090505b5090508281600081518110611544577f4e487b7100000000000000000000000000000000000000000000000000000000600052603260045260246000fd5b60200260200101818152505080915050919050565b6115788473ffffffffffffffffffffffffffffffffffffffff16611729565b15611721578373ffffffffffffffffffffffffffffffffffffffff1663f23a6e6187878686866040518663ffffffff1660e01b81526004016115be95949392919061236f565b602060405180830381600087803b1580156115d857600080fd5b505af192505050801561160957506040513d601f19601f820116820180604052508101906116069190611cdb565b60015b611698576116156129b1565b80611620575061165d565b806040517f08c379a0000000000000000000000000000000000000000000000000000000008152600401611654919061245f565b60405180910390fd5b6040517f08c379a000000000000000000000000000000000000000000000000000000000815260040161168f90612481565b60405180910390fd5b63f23a6e6160e01b7bffffffffffffffffffffffffffffffffffffffffffffffffffffffff1916817bffffffffffffffffffffffffffffffffffffffffffffffffffffffff19161461171f576040517f08c379a0000000000000000000000000000000000000000000000000000000008152600401611716906124a1565b60405180910390fd5b505b505050505050565b600080823b905060008111915050919050565b8280546117489061288b565b90600052602060002090601f01602090048101928261176a57600085556117b1565b82601f1061178357805160ff19168380011785556117b1565b828001600101855582156117b1579182015b828111156117b0578251825591602001919060010190611795565b5b5090506117be91906117c2565b5090565b5b808211156117db5760008160009055506001016117c3565b5090565b60006117f26117ed84612656565b612625565b9050808382526020820190508285602086028201111561181157600080fd5b60005b8581101561184157816118278882611933565b845260208401935060208301925050600181019050611814565b5050509392505050565b600061185e61185984612682565b612625565b9050808382526020820190508285602086028201111561187d57600080fd5b60005b858110156118ad57816118938882611a2f565b845260208401935060208301925050600181019050611880565b5050509392505050565b60006118ca6118c5846126ae565b612625565b9050828152602081018484840111156118e257600080fd5b6118ed848285612849565b509392505050565b6000611908611903846126de565b612625565b90508281526020810184848401111561192057600080fd5b61192b848285612849565b509392505050565b60008135905061194281612a67565b92915050565b600082601f83011261195957600080fd5b81356119698482602086016117df565b91505092915050565b600082601f83011261198357600080fd5b813561199384826020860161184b565b91505092915050565b6000813590506119ab81612a7e565b92915050565b6000813590506119c081612a95565b92915050565b6000815190506119d581612a95565b92915050565b600082601f8301126119ec57600080fd5b81356119fc8482602086016118b7565b91505092915050565b600082601f830112611a1657600080fd5b8135611a268482602086016118f5565b91505092915050565b600081359050611a3e81612aac565b92915050565b60008060408385031215611a5757600080fd5b6000611a6585828601611933565b9250506020611a7685828601611933565b9150509250929050565b600080600080600060a08688031215611a9857600080fd5b6000611aa688828901611933565b9550506020611ab788828901611933565b945050604086013567ffffffffffffffff811115611ad457600080fd5b611ae088828901611972565b935050606086013567ffffffffffffffff811115611afd57600080fd5b611b0988828901611972565b925050608086013567ffffffffffffffff811115611b2657600080fd5b611b32888289016119db565b9150509295509295909350565b600080600080600060a08688031215611b5757600080fd5b6000611b6588828901611933565b9550506020611b7688828901611933565b9450506040611b8788828901611a2f565b9350506060611b9888828901611a2f565b925050608086013567ffffffffffffffff811115611bb557600080fd5b611bc1888289016119db565b9150509295509295909350565b60008060408385031215611be157600080fd5b6000611bef85828601611933565b9250506020611c008582860161199c565b9150509250929050565b60008060408385031215611c1d57600080fd5b6000611c2b85828601611933565b9250506020611c3c85828601611a2f565b9150509250929050565b60008060408385031215611c5957600080fd5b600083013567ffffffffffffffff811115611c7357600080fd5b611c7f85828601611948565b925050602083013567ffffffffffffffff811115611c9c57600080fd5b611ca885828601611972565b9150509250929050565b600060208284031215611cc457600080fd5b6000611cd2848285016119b1565b91505092915050565b600060208284031215611ced57600080fd5b6000611cfb848285016119c6565b91505092915050565b600060208284031215611d1657600080fd5b6000611d2484828501611a2f565b91505092915050565b60008060408385031215611d4057600080fd5b6000611d4e85828601611a2f565b925050602083013567ffffffffffffffff811115611d6b57600080fd5b611d7785828601611a05565b9150509250929050565b6000611d8d83836122e9565b60208301905092915050565b611da2816127d5565b82525050565b6000611db38261271e565b611dbd818561274c565b9350611dc88361270e565b8060005b83811015611df9578151611de08882611d81565b9750611deb8361273f565b925050600181019050611dcc565b5085935050505092915050565b611e0f816127e7565b82525050565b6000611e2082612729565b611e2a818561275d565b9350611e3a818560208601612858565b611e4381612993565b840191505092915050565b6000611e5982612734565b611e63818561276e565b9350611e73818560208601612858565b611e7c81612993565b840191505092915050565b6000611e9460348361276e565b91507f455243313135353a207472616e7366657220746f206e6f6e204552433131353560008301527f526563656976657220696d706c656d656e7465720000000000000000000000006020830152604082019050919050565b6000611efa60288361276e565b91507f455243313135353a204552433131353552656365697665722072656a6563746560008301527f6420746f6b656e730000000000000000000000000000000000000000000000006020830152604082019050919050565b6000611f60602b8361276e565b91507f455243313135353a2062616c616e636520717565727920666f7220746865207a60008301527f65726f20616464726573730000000000000000000000000000000000000000006020830152604082019050919050565b6000611fc660298361276e565b91507f455243313135353a2063616c6c6572206973206e6f74206f776e6572206e6f7260008301527f20617070726f76656400000000000000000000000000000000000000000000006020830152604082019050919050565b600061202c60258361276e565b91507f455243313135353a207472616e7366657220746f20746865207a65726f20616460008301527f64726573730000000000000000000000000000000000000000000000000000006020830152604082019050919050565b600061209260328361276e565b91507f455243313135353a207472616e736665722063616c6c6572206973206e6f742060008301527f6f776e6572206e6f7220617070726f76656400000000000000000000000000006020830152604082019050919050565b60006120f8602a8361276e565b91507f455243313135353a20696e73756666696369656e742062616c616e636520666f60008301527f72207472616e73666572000000000000000000000000000000000000000000006020830152604082019050919050565b600061215e60298361276e565b91507f455243313135353a2073657474696e6720617070726f76616c2073746174757360008301527f20666f722073656c6600000000000000000000000000000000000000000000006020830152604082019050919050565b60006121c460298361276e565b91507f455243313135353a206163636f756e747320616e6420696473206c656e67746860008301527f206d69736d6174636800000000000000000000000000000000000000000000006020830152604082019050919050565b600061222a60288361276e565b91507f455243313135353a2069647320616e6420616d6f756e7473206c656e6774682060008301527f6d69736d617463680000000000000000000000000000000000000000000000006020830152604082019050919050565b600061229060218361276e565b91507f455243313135353a206d696e7420746f20746865207a65726f2061646472657360008301527f73000000000000000000000000000000000000000000000000000000000000006020830152604082019050919050565b6122f28161283f565b82525050565b6123018161283f565b82525050565b600060a08201905061231c6000830188611d99565b6123296020830187611d99565b818103604083015261233b8186611da8565b9050818103606083015261234f8185611da8565b905081810360808301526123638184611e15565b90509695505050505050565b600060a0820190506123846000830188611d99565b6123916020830187611d99565b61239e60408301866122f8565b6123ab60608301856122f8565b81810360808301526123bd8184611e15565b90509695505050505050565b600060208201905081810360008301526123e38184611da8565b905092915050565b600060408201905081810360008301526124058185611da8565b905081810360208301526124198184611da8565b90509392505050565b60006020820190506124376000830184611e06565b92915050565b600060208201905081810360008301526124578184611e15565b905092915050565b600060208201905081810360008301526124798184611e4e565b905092915050565b6000602082019050818103600083015261249a81611e87565b9050919050565b600060208201905081810360008301526124ba81611eed565b9050919050565b600060208201905081810360008301526124da81611f53565b9050919050565b600060208201905081810360008301526124fa81611fb9565b9050919050565b6000602082019050818103600083015261251a8161201f565b9050919050565b6000602082019050818103600083015261253a81612085565b9050919050565b6000602082019050818103600083015261255a816120eb565b9050919050565b6000602082019050818103600083015261257a81612151565b9050919050565b6000602082019050818103600083015261259a816121b7565b9050919050565b600060208201905081810360008301526125ba8161221d565b9050919050565b600060208201905081810360008301526125da81612283565b9050919050565b60006020820190506125f660008301846122f8565b92915050565b600060408201905061261160008301856122f8565b61261e60208301846122f8565b9392505050565b6000604051905081810181811067ffffffffffffffff8211171561264c5761264b612964565b5b8060405250919050565b600067ffffffffffffffff82111561267157612670612964565b5b602082029050602081019050919050565b600067ffffffffffffffff82111561269d5761269c612964565b5b602082029050602081019050919050565b600067ffffffffffffffff8211156126c9576126c8612964565b5b601f19601f8301169050602081019050919050565b600067ffffffffffffffff8211156126f9576126f8612964565b5b601f19601f8301169050602081019050919050565b6000819050602082019050919050565b600081519050919050565b600081519050919050565b600081519050919050565b6000602082019050919050565b600082825260208201905092915050565b600082825260208201905092915050565b600082825260208201905092915050565b600061278a8261283f565b91506127958361283f565b9250827fffffffffffffffffffffffffffffffffffffffffffffffffffffffffffffffff038211156127ca576127c9612906565b5b828201905092915050565b60006127e08261281f565b9050919050565b60008115159050919050565b60007fffffffff0000000000000000000000000000000000000000000000000000000082169050919050565b600073ffffffffffffffffffffffffffffffffffffffff82169050919050565b6000819050919050565b82818337600083830152505050565b60005b8381101561287657808201518184015260208101905061285b565b83811115612885576000848401525b50505050565b600060028204905060018216806128a357607f821691505b602082108114156128b7576128b6612935565b5b50919050565b60006128c88261283f565b91507fffffffffffffffffffffffffffffffffffffffffffffffffffffffffffffffff8214156128fb576128fa612906565b5b600182019050919050565b7f4e487b7100000000000000000000000000000000000000000000000000000000600052601160045260246000fd5b7f4e487b7100000000000000000000000000000000000000000000000000000000600052602260045260246000fd5b7f4e487b7100000000000000000000000000000000000000000000000000000000600052604160045260246000fd5b6000601f19601f8301169050919050565b60008160e01c9050919050565b600060443d10156129c157612a64565b60046000803e6129d26000516129a4565b6308c379a081146129e35750612a64565b60405160043d036004823e80513d602482011167ffffffffffffffff82111715612a0f57505050612a64565b808201805167ffffffffffffffff811115612a2e575050505050612a64565b8060208301013d8501811115612a4957505050505050612a64565b612a5282612993565b60208401016040528296505050505050505b90565b612a70816127d5565b8114612a7b57600080fd5b50565b612a87816127e7565b8114612a9257600080fd5b50565b612a9e816127f3565b8114612aa957600080fd5b50565b612ab58161283f565b8114612ac057600080fd5b5056fea2646970667358221220c7b00eaeb5e3d17ec8b59482fcbc2dbb914d2179884140f93710bd2636b9c56f64736f6c63430008000033",
  "linkReferences": {},
  "deployedLinkReferences": {}
}